{"abi":[{"inputs":[{"internalType":"uint256","name":"minContribution","type":"uint256"},{"internalType":"address","name":"managerAddress","type":"address"}],"stateMutability":"nonpayable","type":"constructor"},{"inputs":[{"internalType":"uint256","name":"key","type":"uint256"}],"name":"approveRequest","outputs":[],"stateMutability":"nonpayable","type":"function"},{"inputs":[],"name":"approversCount","outputs":[{"internalType":"uint256","name":"","type":"uint256"}],"stateMutability":"view","type":"function"},{"inputs":[],"name":"contribute","outputs":[],"stateMutability":"payable","type":"function"},{"inputs":[{"internalType":"string","name":"description","type":"string"},{"internalType":"uint256","name":"value","type":"uint256"},{"internalType":"address","name":"recipient","type":"address"}],"name":"createRequest","outputs":[],"stateMutability":"nonpayable","type":"function"},{"inputs":[{"internalType":"uint256","name":"key","type":"uint256"}],"name":"finalizeRequest","outputs":[],"stateMutability":"nonpayable","type":"function"},{"inputs":[],"name":"manager","outputs":[{"internalType":"address","name":"","type":"address"}],"stateMutability":"view","type":"function"},{"inputs":[],"name":"minimumContribution","outputs":[{"internalType":"uint256","name":"","type":"uint256"}],"stateMutability":"view","type":"function"}],"devdoc":{"kind":"dev","methods":{},"version":1},"evm":{"assembly":"    /* \"Campaign.sol\":502:2748  contract Campaign {... */\n  mstore(0x40, 0x80)\n    /* \"Campaign.sol\":966:1118  constructor(uint256 minContribution, address managerAddress) {... */\n  callvalue\n  dup1\n  iszero\n  tag_1\n  jumpi\n  0x00\n  dup1\n  revert\ntag_1:\n  pop\n  mload(0x40)\n  sub(codesize, bytecodeSize)\n  dup1\n  bytecodeSize\n  dup4\n  codecopy\n  dup2\n  dup2\n  add\n  0x40\n  mstore\n  dup2\n  add\n  swap1\n  tag_2\n  swap2\n  swap1\n  tag_3\n  jump\t// in\ntag_2:\n    /* \"Campaign.sol\":1048:1062  managerAddress */\n  dup1\n    /* \"Campaign.sol\":1038:1045  manager */\n  0x00\n  dup1\n    /* \"Campaign.sol\":1038:1062  manager = managerAddress */\n  0x0100\n  exp\n  dup2\n  sload\n  dup2\n  0xffffffffffffffffffffffffffffffffffffffff\n  mul\n  not\n  and\n  swap1\n  dup4\n  0xffffffffffffffffffffffffffffffffffffffff\n  and\n  mul\n  or\n  swap1\n  sstore\n  pop\n    /* \"Campaign.sol\":1095:1110  minContribution */\n  dup2\n    /* \"Campaign.sol\":1073:1092  minimumContribution */\n  0x03\n    /* \"Campaign.sol\":1073:1110  minimumContribution = minContribution */\n  dup2\n  swap1\n  sstore\n  pop\n    /* \"Campaign.sol\":966:1118  constructor(uint256 minContribution, address managerAddress) {... */\n  pop\n  pop\n    /* \"Campaign.sol\":502:2748  contract Campaign {... */\n  jump(tag_6)\n    /* \"#utility.yul\":88:205   */\ntag_8:\n    /* \"#utility.yul\":197:198   */\n  0x00\n    /* \"#utility.yul\":194:195   */\n  dup1\n    /* \"#utility.yul\":187:199   */\n  revert\n    /* \"#utility.yul\":334:411   */\ntag_10:\n    /* \"#utility.yul\":371:378   */\n  0x00\n    /* \"#utility.yul\":400:405   */\n  dup2\n    /* \"#utility.yul\":389:405   */\n  swap1\n  pop\n    /* \"#utility.yul\":334:411   */\n  swap2\n  swap1\n  pop\n  jump\t// out\n    /* \"#utility.yul\":417:539   */\ntag_11:\n    /* \"#utility.yul\":490:514   */\n  tag_23\n    /* \"#utility.yul\":508:513   */\n  dup2\n    /* \"#utility.yul\":490:514   */\n  tag_10\n  jump\t// in\ntag_23:\n    /* \"#utility.yul\":483:488   */\n  dup2\n    /* \"#utility.yul\":480:515   */\n  eq\n    /* \"#utility.yul\":470:533   */\n  tag_24\n  jumpi\n    /* \"#utility.yul\":529:530   */\n  0x00\n    /* \"#utility.yul\":526:527   */\n  dup1\n    /* \"#utility.yul\":519:531   */\n  revert\n    /* \"#utility.yul\":470:533   */\ntag_24:\n    /* \"#utility.yul\":417:539   */\n  pop\n  jump\t// out\n    /* \"#utility.yul\":545:688   */\ntag_12:\n    /* \"#utility.yul\":602:607   */\n  0x00\n    /* \"#utility.yul\":633:639   */\n  dup2\n    /* \"#utility.yul\":627:640   */\n  mload\n    /* \"#utility.yul\":618:640   */\n  swap1\n  pop\n    /* \"#utility.yul\":649:682   */\n  tag_26\n    /* \"#utility.yul\":676:681   */\n  dup2\n    /* \"#utility.yul\":649:682   */\n  tag_11\n  jump\t// in\ntag_26:\n    /* \"#utility.yul\":545:688   */\n  swap3\n  swap2\n  pop\n  pop\n  jump\t// out\n    /* \"#utility.yul\":694:820   */\ntag_13:\n    /* \"#utility.yul\":731:738   */\n  0x00\n    /* \"#utility.yul\":771:813   */\n  0xffffffffffffffffffffffffffffffffffffffff\n    /* \"#utility.yul\":764:769   */\n  dup3\n    /* \"#utility.yul\":760:814   */\n  and\n    /* \"#utility.yul\":749:814   */\n  swap1\n  pop\n    /* \"#utility.yul\":694:820   */\n  swap2\n  swap1\n  pop\n  jump\t// out\n    /* \"#utility.yul\":826:922   */\ntag_14:\n    /* \"#utility.yul\":863:870   */\n  0x00\n    /* \"#utility.yul\":892:916   */\n  tag_29\n    /* \"#utility.yul\":910:915   */\n  dup3\n    /* \"#utility.yul\":892:916   */\n  tag_13\n  jump\t// in\ntag_29:\n    /* \"#utility.yul\":881:916   */\n  swap1\n  pop\n    /* \"#utility.yul\":826:922   */\n  swap2\n  swap1\n  pop\n  jump\t// out\n    /* \"#utility.yul\":928:1050   */\ntag_15:\n    /* \"#utility.yul\":1001:1025   */\n  tag_31\n    /* \"#utility.yul\":1019:1024   */\n  dup2\n    /* \"#utility.yul\":1001:1025   */\n  tag_14\n  jump\t// in\ntag_31:\n    /* \"#utility.yul\":994:999   */\n  dup2\n    /* \"#utility.yul\":991:1026   */\n  eq\n    /* \"#utility.yul\":981:1044   */\n  tag_32\n  jumpi\n    /* \"#utility.yul\":1040:1041   */\n  0x00\n    /* \"#utility.yul\":1037:1038   */\n  dup1\n    /* \"#utility.yul\":1030:1042   */\n  revert\n    /* \"#utility.yul\":981:1044   */\ntag_32:\n    /* \"#utility.yul\":928:1050   */\n  pop\n  jump\t// out\n    /* \"#utility.yul\":1056:1199   */\ntag_16:\n    /* \"#utility.yul\":1113:1118   */\n  0x00\n    /* \"#utility.yul\":1144:1150   */\n  dup2\n    /* \"#utility.yul\":1138:1151   */\n  mload\n    /* \"#utility.yul\":1129:1151   */\n  swap1\n  pop\n    /* \"#utility.yul\":1160:1193   */\n  tag_34\n    /* \"#utility.yul\":1187:1192   */\n  dup2\n    /* \"#utility.yul\":1160:1193   */\n  tag_15\n  jump\t// in\ntag_34:\n    /* \"#utility.yul\":1056:1199   */\n  swap3\n  swap2\n  pop\n  pop\n  jump\t// out\n    /* \"#utility.yul\":1205:1712   */\ntag_3:\n    /* \"#utility.yul\":1284:1290   */\n  0x00\n    /* \"#utility.yul\":1292:1298   */\n  dup1\n    /* \"#utility.yul\":1341:1343   */\n  0x40\n    /* \"#utility.yul\":1329:1338   */\n  dup4\n    /* \"#utility.yul\":1320:1327   */\n  dup6\n    /* \"#utility.yul\":1316:1339   */\n  sub\n    /* \"#utility.yul\":1312:1344   */\n  slt\n    /* \"#utility.yul\":1309:1428   */\n  iszero\n  tag_36\n  jumpi\n    /* \"#utility.yul\":1347:1426   */\n  tag_37\n  tag_8\n  jump\t// in\ntag_37:\n    /* \"#utility.yul\":1309:1428   */\ntag_36:\n    /* \"#utility.yul\":1467:1468   */\n  0x00\n    /* \"#utility.yul\":1492:1556   */\n  tag_38\n    /* \"#utility.yul\":1548:1555   */\n  dup6\n    /* \"#utility.yul\":1539:1545   */\n  dup3\n    /* \"#utility.yul\":1528:1537   */\n  dup7\n    /* \"#utility.yul\":1524:1546   */\n  add\n    /* \"#utility.yul\":1492:1556   */\n  tag_12\n  jump\t// in\ntag_38:\n    /* \"#utility.yul\":1482:1556   */\n  swap3\n  pop\n    /* \"#utility.yul\":1438:1566   */\n  pop\n    /* \"#utility.yul\":1605:1607   */\n  0x20\n    /* \"#utility.yul\":1631:1695   */\n  tag_39\n    /* \"#utility.yul\":1687:1694   */\n  dup6\n    /* \"#utility.yul\":1678:1684   */\n  dup3\n    /* \"#utility.yul\":1667:1676   */\n  dup7\n    /* \"#utility.yul\":1663:1685   */\n  add\n    /* \"#utility.yul\":1631:1695   */\n  tag_16\n  jump\t// in\ntag_39:\n    /* \"#utility.yul\":1621:1695   */\n  swap2\n  pop\n    /* \"#utility.yul\":1576:1705   */\n  pop\n    /* \"#utility.yul\":1205:1712   */\n  swap3\n  pop\n  swap3\n  swap1\n  pop\n  jump\t// out\n    /* \"Campaign.sol\":502:2748  contract Campaign {... */\ntag_6:\n  dataSize(sub_0)\n  dup1\n  dataOffset(sub_0)\n  0x00\n  codecopy\n  0x00\n  return\nstop\n\nsub_0: assembly {\n        /* \"Campaign.sol\":502:2748  contract Campaign {... */\n      mstore(0x40, 0x80)\n      jumpi(tag_1, lt(calldatasize, 0x04))\n      shr(0xe0, calldataload(0x00))\n      dup1\n      0x8a9cfd55\n      gt\n      tag_9\n      jumpi\n      dup1\n      0x8a9cfd55\n      eq\n      tag_5\n      jumpi\n      dup1\n      0x937e09b1\n      eq\n      tag_6\n      jumpi\n      dup1\n      0xd7bb99ba\n      eq\n      tag_7\n      jumpi\n      dup1\n      0xd7d1bbdb\n      eq\n      tag_8\n      jumpi\n      jump(tag_1)\n    tag_9:\n      dup1\n      0x03441006\n      eq\n      tag_2\n      jumpi\n      dup1\n      0x481c6a75\n      eq\n      tag_3\n      jumpi\n      dup1\n      0x82fde093\n      eq\n      tag_4\n      jumpi\n    tag_1:\n      0x00\n      dup1\n      revert\n        /* \"Campaign.sol\":2444:2745  function finalizeRequest(uint256 key) public restricted {... */\n    tag_2:\n      callvalue\n      dup1\n      iszero\n      tag_10\n      jumpi\n      0x00\n      dup1\n      revert\n    tag_10:\n      pop\n      tag_11\n      0x04\n      dup1\n      calldatasize\n      sub\n      dup2\n      add\n      swap1\n      tag_12\n      swap2\n      swap1\n      tag_13\n      jump\t// in\n    tag_12:\n      tag_14\n      jump\t// in\n    tag_11:\n      stop\n        /* \"Campaign.sol\":748:770  address public manager */\n    tag_3:\n      callvalue\n      dup1\n      iszero\n      tag_15\n      jumpi\n      0x00\n      dup1\n      revert\n    tag_15:\n      pop\n      tag_16\n      tag_17\n      jump\t// in\n    tag_16:\n      mload(0x40)\n      tag_18\n      swap2\n      swap1\n      tag_19\n      jump\t// in\n    tag_18:\n      mload(0x40)\n      dup1\n      swap2\n      sub\n      swap1\n      return\n        /* \"Campaign.sol\":885:914  uint256 public approversCount */\n    tag_4:\n      callvalue\n      dup1\n      iszero\n      tag_20\n      jumpi\n      0x00\n      dup1\n      revert\n    tag_20:\n      pop\n      tag_21\n      tag_22\n      jump\t// in\n    tag_21:\n      mload(0x40)\n      tag_23\n      swap2\n      swap1\n      tag_24\n      jump\t// in\n    tag_23:\n      mload(0x40)\n      dup1\n      swap2\n      sub\n      swap1\n      return\n        /* \"Campaign.sol\":1430:2150  function createRequest(... */\n    tag_5:\n      callvalue\n      dup1\n      iszero\n      tag_25\n      jumpi\n      0x00\n      dup1\n      revert\n    tag_25:\n      pop\n      tag_26\n      0x04\n      dup1\n      calldatasize\n      sub\n      dup2\n      add\n      swap1\n      tag_27\n      swap2\n      swap1\n      tag_28\n      jump\t// in\n    tag_27:\n      tag_29\n      jump\t// in\n    tag_26:\n      stop\n        /* \"Campaign.sol\":844:878  uint256 public minimumContribution */\n    tag_6:\n      callvalue\n      dup1\n      iszero\n      tag_30\n      jumpi\n      0x00\n      dup1\n      revert\n    tag_30:\n      pop\n      tag_31\n      tag_32\n      jump\t// in\n    tag_31:\n      mload(0x40)\n      tag_33\n      swap2\n      swap1\n      tag_24\n      jump\t// in\n    tag_33:\n      mload(0x40)\n      dup1\n      swap2\n      sub\n      swap1\n      return\n        /* \"Campaign.sol\":1217:1422  function contribute() public payable {... */\n    tag_7:\n      tag_34\n      tag_35\n      jump\t// in\n    tag_34:\n      stop\n        /* \"Campaign.sol\":2158:2436  function approveRequest(uint256 key) public {... */\n    tag_8:\n      callvalue\n      dup1\n      iszero\n      tag_36\n      jumpi\n      0x00\n      dup1\n      revert\n    tag_36:\n      pop\n      tag_37\n      0x04\n      dup1\n      calldatasize\n      sub\n      dup2\n      add\n      swap1\n      tag_38\n      swap2\n      swap1\n      tag_13\n      jump\t// in\n    tag_38:\n      tag_39\n      jump\t// in\n    tag_37:\n      stop\n        /* \"Campaign.sol\":2444:2745  function finalizeRequest(uint256 key) public restricted {... */\n    tag_14:\n        /* \"Campaign.sol\":1181:1188  manager */\n      0x00\n      dup1\n      sload\n      swap1\n      0x0100\n      exp\n      swap1\n      div\n      0xffffffffffffffffffffffffffffffffffffffff\n      and\n        /* \"Campaign.sol\":1167:1188  msg.sender == manager */\n      0xffffffffffffffffffffffffffffffffffffffff\n      and\n        /* \"Campaign.sol\":1167:1177  msg.sender */\n      caller\n        /* \"Campaign.sol\":1167:1188  msg.sender == manager */\n      0xffffffffffffffffffffffffffffffffffffffff\n      and\n      eq\n        /* \"Campaign.sol\":1159:1189  require(msg.sender == manager) */\n      tag_41\n      jumpi\n      0x00\n      dup1\n      revert\n    tag_41:\n        /* \"Campaign.sol\":2511:2534  Request storage request */\n      0x00\n        /* \"Campaign.sol\":2537:2545  requests */\n      0x05\n        /* \"Campaign.sol\":2537:2550  requests[key] */\n      0x00\n        /* \"Campaign.sol\":2546:2549  key */\n      dup4\n        /* \"Campaign.sol\":2537:2550  requests[key] */\n      dup2\n      mstore\n      0x20\n      add\n      swap1\n      dup2\n      mstore\n      0x20\n      add\n      0x00\n      keccak256\n        /* \"Campaign.sol\":2511:2550  Request storage request = requests[key] */\n      swap1\n      pop\n        /* \"Campaign.sol\":2570:2577  request */\n      dup1\n        /* \"Campaign.sol\":2570:2586  request.complete */\n      0x02\n      add\n      0x14\n      swap1\n      sload\n      swap1\n      0x0100\n      exp\n      swap1\n      div\n      0xff\n      and\n        /* \"Campaign.sol\":2569:2586  !request.complete */\n      iszero\n        /* \"Campaign.sol\":2561:2587  require(!request.complete) */\n      tag_43\n      jumpi\n      0x00\n      dup1\n      revert\n    tag_43:\n        /* \"Campaign.sol\":2648:2649  2 */\n      0x02\n        /* \"Campaign.sol\":2631:2645  approversCount */\n      sload(0x04)\n        /* \"Campaign.sol\":2631:2649  approversCount / 2 */\n      tag_44\n      swap2\n      swap1\n      tag_45\n      jump\t// in\n    tag_44:\n        /* \"Campaign.sol\":2606:2613  request */\n      dup2\n        /* \"Campaign.sol\":2606:2627  request.approvalCount */\n      0x03\n      add\n      sload\n        /* \"Campaign.sol\":2606:2650  request.approvalCount > (approversCount / 2) */\n      gt\n        /* \"Campaign.sol\":2598:2651  require(request.approvalCount > (approversCount / 2)) */\n      tag_46\n      jumpi\n      0x00\n      dup1\n      revert\n    tag_46:\n        /* \"Campaign.sol\":2662:2669  request */\n      dup1\n        /* \"Campaign.sol\":2662:2679  request.recipient */\n      0x02\n      add\n      0x00\n      swap1\n      sload\n      swap1\n      0x0100\n      exp\n      swap1\n      div\n      0xffffffffffffffffffffffffffffffffffffffff\n      and\n        /* \"Campaign.sol\":2662:2688  request.recipient.transfer */\n      0xffffffffffffffffffffffffffffffffffffffff\n      and\n        /* \"Campaign.sol\":2662:2703  request.recipient.transfer(request.value) */\n      0x08fc\n        /* \"Campaign.sol\":2689:2696  request */\n      dup3\n        /* \"Campaign.sol\":2689:2702  request.value */\n      0x01\n      add\n      sload\n        /* \"Campaign.sol\":2662:2703  request.recipient.transfer(request.value) */\n      swap1\n      dup2\n      iszero\n      mul\n      swap1\n      mload(0x40)\n      0x00\n      mload(0x40)\n      dup1\n      dup4\n      sub\n      dup2\n      dup6\n      dup9\n      dup9\n      call\n      swap4\n      pop\n      pop\n      pop\n      pop\n      iszero\n      dup1\n      iszero\n      tag_48\n      jumpi\n      returndatasize\n      0x00\n      dup1\n      returndatacopy\n      revert(0x00, returndatasize)\n    tag_48:\n      pop\n        /* \"Campaign.sol\":2733:2737  true */\n      0x01\n        /* \"Campaign.sol\":2714:2721  request */\n      dup2\n        /* \"Campaign.sol\":2714:2730  request.complete */\n      0x02\n      add\n      0x14\n        /* \"Campaign.sol\":2714:2737  request.complete = true */\n      0x0100\n      exp\n      dup2\n      sload\n      dup2\n      0xff\n      mul\n      not\n      and\n      swap1\n      dup4\n      iszero\n      iszero\n      mul\n      or\n      swap1\n      sstore\n      pop\n        /* \"Campaign.sol\":2500:2745  {... */\n      pop\n        /* \"Campaign.sol\":2444:2745  function finalizeRequest(uint256 key) public restricted {... */\n      pop\n      jump\t// out\n        /* \"Campaign.sol\":748:770  address public manager */\n    tag_17:\n      0x00\n      dup1\n      sload\n      swap1\n      0x0100\n      exp\n      swap1\n      div\n      0xffffffffffffffffffffffffffffffffffffffff\n      and\n      dup2\n      jump\t// out\n        /* \"Campaign.sol\":885:914  uint256 public approversCount */\n    tag_22:\n      sload(0x04)\n      dup2\n      jump\t// out\n        /* \"Campaign.sol\":1430:2150  function createRequest(... */\n    tag_29:\n        /* \"Campaign.sol\":1181:1188  manager */\n      0x00\n      dup1\n      sload\n      swap1\n      0x0100\n      exp\n      swap1\n      div\n      0xffffffffffffffffffffffffffffffffffffffff\n      and\n        /* \"Campaign.sol\":1167:1188  msg.sender == manager */\n      0xffffffffffffffffffffffffffffffffffffffff\n      and\n        /* \"Campaign.sol\":1167:1177  msg.sender */\n      caller\n        /* \"Campaign.sol\":1167:1188  msg.sender == manager */\n      0xffffffffffffffffffffffffffffffffffffffff\n      and\n      eq\n        /* \"Campaign.sol\":1159:1189  require(msg.sender == manager) */\n      tag_50\n      jumpi\n      0x00\n      dup1\n      revert\n    tag_50:\n        /* \"Campaign.sol\":1897:1920  Request storage request */\n      0x00\n        /* \"Campaign.sol\":1923:1931  requests */\n      0x05\n        /* \"Campaign.sol\":1923:1946  requests[numRequests++] */\n      0x00\n        /* \"Campaign.sol\":1932:1943  numRequests */\n      0x01\n      0x00\n        /* \"Campaign.sol\":1932:1945  numRequests++ */\n      dup2\n      sload\n      dup1\n      swap3\n      swap2\n      swap1\n      tag_52\n      swap1\n      tag_53\n      jump\t// in\n    tag_52:\n      swap2\n      swap1\n      pop\n      sstore\n        /* \"Campaign.sol\":1923:1946  requests[numRequests++] */\n      dup2\n      mstore\n      0x20\n      add\n      swap1\n      dup2\n      mstore\n      0x20\n      add\n      0x00\n      keccak256\n        /* \"Campaign.sol\":1897:1946  Request storage request = requests[numRequests++] */\n      swap1\n      pop\n        /* \"Campaign.sol\":1979:1990  description */\n      dup4\n        /* \"Campaign.sol\":1957:1964  request */\n      dup2\n        /* \"Campaign.sol\":1957:1976  request.description */\n      0x00\n      add\n        /* \"Campaign.sol\":1957:1990  request.description = description */\n      swap1\n      dup2\n      tag_54\n      swap2\n      swap1\n      tag_55\n      jump\t// in\n    tag_54:\n      pop\n        /* \"Campaign.sol\":2017:2022  value */\n      dup3\n        /* \"Campaign.sol\":2001:2008  request */\n      dup2\n        /* \"Campaign.sol\":2001:2014  request.value */\n      0x01\n      add\n        /* \"Campaign.sol\":2001:2022  request.value = value */\n      dup2\n      swap1\n      sstore\n      pop\n        /* \"Campaign.sol\":2061:2070  recipient */\n      dup2\n        /* \"Campaign.sol\":2033:2040  request */\n      dup2\n        /* \"Campaign.sol\":2033:2050  request.recipient */\n      0x02\n      add\n      0x00\n        /* \"Campaign.sol\":2033:2071  request.recipient = payable(recipient) */\n      0x0100\n      exp\n      dup2\n      sload\n      dup2\n      0xffffffffffffffffffffffffffffffffffffffff\n      mul\n      not\n      and\n      swap1\n      dup4\n      0xffffffffffffffffffffffffffffffffffffffff\n      and\n      mul\n      or\n      swap1\n      sstore\n      pop\n        /* \"Campaign.sol\":2101:2106  false */\n      0x00\n        /* \"Campaign.sol\":2082:2089  request */\n      dup2\n        /* \"Campaign.sol\":2082:2098  request.complete */\n      0x02\n      add\n      0x14\n        /* \"Campaign.sol\":2082:2106  request.complete = false */\n      0x0100\n      exp\n      dup2\n      sload\n      dup2\n      0xff\n      mul\n      not\n      and\n      swap1\n      dup4\n      iszero\n      iszero\n      mul\n      or\n      swap1\n      sstore\n      pop\n        /* \"Campaign.sol\":2141:2142  0 */\n      0x00\n        /* \"Campaign.sol\":2117:2124  request */\n      dup2\n        /* \"Campaign.sol\":2117:2138  request.approvalCount */\n      0x03\n      add\n        /* \"Campaign.sol\":2117:2142  request.approvalCount = 0 */\n      dup2\n      swap1\n      sstore\n      pop\n        /* \"Campaign.sol\":1566:2150  {... */\n      pop\n        /* \"Campaign.sol\":1430:2150  function createRequest(... */\n      pop\n      pop\n      pop\n      jump\t// out\n        /* \"Campaign.sol\":844:878  uint256 public minimumContribution */\n    tag_32:\n      sload(0x03)\n      dup2\n      jump\t// out\n        /* \"Campaign.sol\":1217:1422  function contribute() public payable {... */\n    tag_35:\n        /* \"Campaign.sol\":1286:1305  minimumContribution */\n      sload(0x03)\n        /* \"Campaign.sol\":1273:1282  msg.value */\n      callvalue\n        /* \"Campaign.sol\":1273:1305  msg.value >= minimumContribution */\n      lt\n      iszero\n        /* \"Campaign.sol\":1265:1306  require(msg.value >= minimumContribution) */\n      tag_57\n      jumpi\n      0x00\n      dup1\n      revert\n    tag_57:\n        /* \"Campaign.sol\":1383:1387  true */\n      0x01\n        /* \"Campaign.sol\":1359:1368  approvers */\n      0x02\n        /* \"Campaign.sol\":1359:1380  approvers[msg.sender] */\n      0x00\n        /* \"Campaign.sol\":1369:1379  msg.sender */\n      caller\n        /* \"Campaign.sol\":1359:1380  approvers[msg.sender] */\n      0xffffffffffffffffffffffffffffffffffffffff\n      and\n      0xffffffffffffffffffffffffffffffffffffffff\n      and\n      dup2\n      mstore\n      0x20\n      add\n      swap1\n      dup2\n      mstore\n      0x20\n      add\n      0x00\n      keccak256\n      0x00\n        /* \"Campaign.sol\":1359:1387  approvers[msg.sender] = true */\n      0x0100\n      exp\n      dup2\n      sload\n      dup2\n      0xff\n      mul\n      not\n      and\n      swap1\n      dup4\n      iszero\n      iszero\n      mul\n      or\n      swap1\n      sstore\n      pop\n        /* \"Campaign.sol\":1398:1412  approversCount */\n      0x04\n      0x00\n        /* \"Campaign.sol\":1398:1414  approversCount++ */\n      dup2\n      sload\n      dup1\n      swap3\n      swap2\n      swap1\n      tag_58\n      swap1\n      tag_53\n      jump\t// in\n    tag_58:\n      swap2\n      swap1\n      pop\n      sstore\n      pop\n        /* \"Campaign.sol\":1217:1422  function contribute() public payable {... */\n      jump\t// out\n        /* \"Campaign.sol\":2158:2436  function approveRequest(uint256 key) public {... */\n    tag_39:\n        /* \"Campaign.sol\":2213:2236  Request storage request */\n      0x00\n        /* \"Campaign.sol\":2239:2247  requests */\n      0x05\n        /* \"Campaign.sol\":2239:2252  requests[key] */\n      0x00\n        /* \"Campaign.sol\":2248:2251  key */\n      dup4\n        /* \"Campaign.sol\":2239:2252  requests[key] */\n      dup2\n      mstore\n      0x20\n      add\n      swap1\n      dup2\n      mstore\n      0x20\n      add\n      0x00\n      keccak256\n        /* \"Campaign.sol\":2213:2252  Request storage request = requests[key] */\n      swap1\n      pop\n        /* \"Campaign.sol\":2273:2282  approvers */\n      0x02\n        /* \"Campaign.sol\":2273:2294  approvers[msg.sender] */\n      0x00\n        /* \"Campaign.sol\":2283:2293  msg.sender */\n      caller\n        /* \"Campaign.sol\":2273:2294  approvers[msg.sender] */\n      0xffffffffffffffffffffffffffffffffffffffff\n      and\n      0xffffffffffffffffffffffffffffffffffffffff\n      and\n      dup2\n      mstore\n      0x20\n      add\n      swap1\n      dup2\n      mstore\n      0x20\n      add\n      0x00\n      keccak256\n      0x00\n      swap1\n      sload\n      swap1\n      0x0100\n      exp\n      swap1\n      div\n      0xff\n      and\n        /* \"Campaign.sol\":2265:2295  require(approvers[msg.sender]) */\n      tag_60\n      jumpi\n      0x00\n      dup1\n      revert\n    tag_60:\n        /* \"Campaign.sol\":2315:2322  request */\n      dup1\n        /* \"Campaign.sol\":2315:2332  request.approvals */\n      0x04\n      add\n        /* \"Campaign.sol\":2315:2344  request.approvals[msg.sender] */\n      0x00\n        /* \"Campaign.sol\":2333:2343  msg.sender */\n      caller\n        /* \"Campaign.sol\":2315:2344  request.approvals[msg.sender] */\n      0xffffffffffffffffffffffffffffffffffffffff\n      and\n      0xffffffffffffffffffffffffffffffffffffffff\n      and\n      dup2\n      mstore\n      0x20\n      add\n      swap1\n      dup2\n      mstore\n      0x20\n      add\n      0x00\n      keccak256\n      0x00\n      swap1\n      sload\n      swap1\n      0x0100\n      exp\n      swap1\n      div\n      0xff\n      and\n        /* \"Campaign.sol\":2314:2344  !request.approvals[msg.sender] */\n      iszero\n        /* \"Campaign.sol\":2306:2345  require(!request.approvals[msg.sender]) */\n      tag_61\n      jumpi\n      0x00\n      dup1\n      revert\n    tag_61:\n        /* \"Campaign.sol\":2390:2394  true */\n      0x01\n        /* \"Campaign.sol\":2358:2365  request */\n      dup2\n        /* \"Campaign.sol\":2358:2375  request.approvals */\n      0x04\n      add\n        /* \"Campaign.sol\":2358:2387  request.approvals[msg.sender] */\n      0x00\n        /* \"Campaign.sol\":2376:2386  msg.sender */\n      caller\n        /* \"Campaign.sol\":2358:2387  request.approvals[msg.sender] */\n      0xffffffffffffffffffffffffffffffffffffffff\n      and\n      0xffffffffffffffffffffffffffffffffffffffff\n      and\n      dup2\n      mstore\n      0x20\n      add\n      swap1\n      dup2\n      mstore\n      0x20\n      add\n      0x00\n      keccak256\n      0x00\n        /* \"Campaign.sol\":2358:2394  request.approvals[msg.sender] = true */\n      0x0100\n      exp\n      dup2\n      sload\n      dup2\n      0xff\n      mul\n      not\n      and\n      swap1\n      dup4\n      iszero\n      iszero\n      mul\n      or\n      swap1\n      sstore\n      pop\n        /* \"Campaign.sol\":2405:2412  request */\n      dup1\n        /* \"Campaign.sol\":2405:2426  request.approvalCount */\n      0x03\n      add\n      0x00\n        /* \"Campaign.sol\":2405:2428  request.approvalCount++ */\n      dup2\n      sload\n      dup1\n      swap3\n      swap2\n      swap1\n      tag_62\n      swap1\n      tag_53\n      jump\t// in\n    tag_62:\n      swap2\n      swap1\n      pop\n      sstore\n      pop\n        /* \"Campaign.sol\":2202:2436  {... */\n      pop\n        /* \"Campaign.sol\":2158:2436  function approveRequest(uint256 key) public {... */\n      pop\n      jump\t// out\n        /* \"#utility.yul\":7:82   */\n    tag_63:\n        /* \"#utility.yul\":40:46   */\n      0x00\n        /* \"#utility.yul\":73:75   */\n      0x40\n        /* \"#utility.yul\":67:76   */\n      mload\n        /* \"#utility.yul\":57:76   */\n      swap1\n      pop\n        /* \"#utility.yul\":7:82   */\n      swap1\n      jump\t// out\n        /* \"#utility.yul\":88:205   */\n    tag_64:\n        /* \"#utility.yul\":197:198   */\n      0x00\n        /* \"#utility.yul\":194:195   */\n      dup1\n        /* \"#utility.yul\":187:199   */\n      revert\n        /* \"#utility.yul\":211:328   */\n    tag_65:\n        /* \"#utility.yul\":320:321   */\n      0x00\n        /* \"#utility.yul\":317:318   */\n      dup1\n        /* \"#utility.yul\":310:322   */\n      revert\n        /* \"#utility.yul\":334:411   */\n    tag_66:\n        /* \"#utility.yul\":371:378   */\n      0x00\n        /* \"#utility.yul\":400:405   */\n      dup2\n        /* \"#utility.yul\":389:405   */\n      swap1\n      pop\n        /* \"#utility.yul\":334:411   */\n      swap2\n      swap1\n      pop\n      jump\t// out\n        /* \"#utility.yul\":417:539   */\n    tag_67:\n        /* \"#utility.yul\":490:514   */\n      tag_111\n        /* \"#utility.yul\":508:513   */\n      dup2\n        /* \"#utility.yul\":490:514   */\n      tag_66\n      jump\t// in\n    tag_111:\n        /* \"#utility.yul\":483:488   */\n      dup2\n        /* \"#utility.yul\":480:515   */\n      eq\n        /* \"#utility.yul\":470:533   */\n      tag_112\n      jumpi\n        /* \"#utility.yul\":529:530   */\n      0x00\n        /* \"#utility.yul\":526:527   */\n      dup1\n        /* \"#utility.yul\":519:531   */\n      revert\n        /* \"#utility.yul\":470:533   */\n    tag_112:\n        /* \"#utility.yul\":417:539   */\n      pop\n      jump\t// out\n        /* \"#utility.yul\":545:684   */\n    tag_68:\n        /* \"#utility.yul\":591:596   */\n      0x00\n        /* \"#utility.yul\":629:635   */\n      dup2\n        /* \"#utility.yul\":616:636   */\n      calldataload\n        /* \"#utility.yul\":607:636   */\n      swap1\n      pop\n        /* \"#utility.yul\":645:678   */\n      tag_114\n        /* \"#utility.yul\":672:677   */\n      dup2\n        /* \"#utility.yul\":645:678   */\n      tag_67\n      jump\t// in\n    tag_114:\n        /* \"#utility.yul\":545:684   */\n      swap3\n      swap2\n      pop\n      pop\n      jump\t// out\n        /* \"#utility.yul\":690:1019   */\n    tag_13:\n        /* \"#utility.yul\":749:755   */\n      0x00\n        /* \"#utility.yul\":798:800   */\n      0x20\n        /* \"#utility.yul\":786:795   */\n      dup3\n        /* \"#utility.yul\":777:784   */\n      dup5\n        /* \"#utility.yul\":773:796   */\n      sub\n        /* \"#utility.yul\":769:801   */\n      slt\n        /* \"#utility.yul\":766:885   */\n      iszero\n      tag_116\n      jumpi\n        /* \"#utility.yul\":804:883   */\n      tag_117\n      tag_64\n      jump\t// in\n    tag_117:\n        /* \"#utility.yul\":766:885   */\n    tag_116:\n        /* \"#utility.yul\":924:925   */\n      0x00\n        /* \"#utility.yul\":949:1002   */\n      tag_118\n        /* \"#utility.yul\":994:1001   */\n      dup5\n        /* \"#utility.yul\":985:991   */\n      dup3\n        /* \"#utility.yul\":974:983   */\n      dup6\n        /* \"#utility.yul\":970:992   */\n      add\n        /* \"#utility.yul\":949:1002   */\n      tag_68\n      jump\t// in\n    tag_118:\n        /* \"#utility.yul\":939:1002   */\n      swap2\n      pop\n        /* \"#utility.yul\":895:1012   */\n      pop\n        /* \"#utility.yul\":690:1019   */\n      swap3\n      swap2\n      pop\n      pop\n      jump\t// out\n        /* \"#utility.yul\":1025:1151   */\n    tag_69:\n        /* \"#utility.yul\":1062:1069   */\n      0x00\n        /* \"#utility.yul\":1102:1144   */\n      0xffffffffffffffffffffffffffffffffffffffff\n        /* \"#utility.yul\":1095:1100   */\n      dup3\n        /* \"#utility.yul\":1091:1145   */\n      and\n        /* \"#utility.yul\":1080:1145   */\n      swap1\n      pop\n        /* \"#utility.yul\":1025:1151   */\n      swap2\n      swap1\n      pop\n      jump\t// out\n        /* \"#utility.yul\":1157:1253   */\n    tag_70:\n        /* \"#utility.yul\":1194:1201   */\n      0x00\n        /* \"#utility.yul\":1223:1247   */\n      tag_121\n        /* \"#utility.yul\":1241:1246   */\n      dup3\n        /* \"#utility.yul\":1223:1247   */\n      tag_69\n      jump\t// in\n    tag_121:\n        /* \"#utility.yul\":1212:1247   */\n      swap1\n      pop\n        /* \"#utility.yul\":1157:1253   */\n      swap2\n      swap1\n      pop\n      jump\t// out\n        /* \"#utility.yul\":1259:1377   */\n    tag_71:\n        /* \"#utility.yul\":1346:1370   */\n      tag_123\n        /* \"#utility.yul\":1364:1369   */\n      dup2\n        /* \"#utility.yul\":1346:1370   */\n      tag_70\n      jump\t// in\n    tag_123:\n        /* \"#utility.yul\":1341:1344   */\n      dup3\n        /* \"#utility.yul\":1334:1371   */\n      mstore\n        /* \"#utility.yul\":1259:1377   */\n      pop\n      pop\n      jump\t// out\n        /* \"#utility.yul\":1383:1605   */\n    tag_19:\n        /* \"#utility.yul\":1476:1480   */\n      0x00\n        /* \"#utility.yul\":1514:1516   */\n      0x20\n        /* \"#utility.yul\":1503:1512   */\n      dup3\n        /* \"#utility.yul\":1499:1517   */\n      add\n        /* \"#utility.yul\":1491:1517   */\n      swap1\n      pop\n        /* \"#utility.yul\":1527:1598   */\n      tag_125\n        /* \"#utility.yul\":1595:1596   */\n      0x00\n        /* \"#utility.yul\":1584:1593   */\n      dup4\n        /* \"#utility.yul\":1580:1597   */\n      add\n        /* \"#utility.yul\":1571:1577   */\n      dup5\n        /* \"#utility.yul\":1527:1598   */\n      tag_71\n      jump\t// in\n    tag_125:\n        /* \"#utility.yul\":1383:1605   */\n      swap3\n      swap2\n      pop\n      pop\n      jump\t// out\n        /* \"#utility.yul\":1611:1729   */\n    tag_72:\n        /* \"#utility.yul\":1698:1722   */\n      tag_127\n        /* \"#utility.yul\":1716:1721   */\n      dup2\n        /* \"#utility.yul\":1698:1722   */\n      tag_66\n      jump\t// in\n    tag_127:\n        /* \"#utility.yul\":1693:1696   */\n      dup3\n        /* \"#utility.yul\":1686:1723   */\n      mstore\n        /* \"#utility.yul\":1611:1729   */\n      pop\n      pop\n      jump\t// out\n        /* \"#utility.yul\":1735:1957   */\n    tag_24:\n        /* \"#utility.yul\":1828:1832   */\n      0x00\n        /* \"#utility.yul\":1866:1868   */\n      0x20\n        /* \"#utility.yul\":1855:1864   */\n      dup3\n        /* \"#utility.yul\":1851:1869   */\n      add\n        /* \"#utility.yul\":1843:1869   */\n      swap1\n      pop\n        /* \"#utility.yul\":1879:1950   */\n      tag_129\n        /* \"#utility.yul\":1947:1948   */\n      0x00\n        /* \"#utility.yul\":1936:1945   */\n      dup4\n        /* \"#utility.yul\":1932:1949   */\n      add\n        /* \"#utility.yul\":1923:1929   */\n      dup5\n        /* \"#utility.yul\":1879:1950   */\n      tag_72\n      jump\t// in\n    tag_129:\n        /* \"#utility.yul\":1735:1957   */\n      swap3\n      swap2\n      pop\n      pop\n      jump\t// out\n        /* \"#utility.yul\":1963:2080   */\n    tag_73:\n        /* \"#utility.yul\":2072:2073   */\n      0x00\n        /* \"#utility.yul\":2069:2070   */\n      dup1\n        /* \"#utility.yul\":2062:2074   */\n      revert\n        /* \"#utility.yul\":2086:2203   */\n    tag_74:\n        /* \"#utility.yul\":2195:2196   */\n      0x00\n        /* \"#utility.yul\":2192:2193   */\n      dup1\n        /* \"#utility.yul\":2185:2197   */\n      revert\n        /* \"#utility.yul\":2209:2311   */\n    tag_75:\n        /* \"#utility.yul\":2250:2256   */\n      0x00\n        /* \"#utility.yul\":2301:2303   */\n      0x1f\n        /* \"#utility.yul\":2297:2304   */\n      not\n        /* \"#utility.yul\":2292:2294   */\n      0x1f\n        /* \"#utility.yul\":2285:2290   */\n      dup4\n        /* \"#utility.yul\":2281:2295   */\n      add\n        /* \"#utility.yul\":2277:2305   */\n      and\n        /* \"#utility.yul\":2267:2305   */\n      swap1\n      pop\n        /* \"#utility.yul\":2209:2311   */\n      swap2\n      swap1\n      pop\n      jump\t// out\n        /* \"#utility.yul\":2317:2497   */\n    tag_76:\n        /* \"#utility.yul\":2365:2442   */\n      0x4e487b7100000000000000000000000000000000000000000000000000000000\n        /* \"#utility.yul\":2362:2363   */\n      0x00\n        /* \"#utility.yul\":2355:2443   */\n      mstore\n        /* \"#utility.yul\":2462:2466   */\n      0x41\n        /* \"#utility.yul\":2459:2460   */\n      0x04\n        /* \"#utility.yul\":2452:2467   */\n      mstore\n        /* \"#utility.yul\":2486:2490   */\n      0x24\n        /* \"#utility.yul\":2483:2484   */\n      0x00\n        /* \"#utility.yul\":2476:2491   */\n      revert\n        /* \"#utility.yul\":2503:2784   */\n    tag_77:\n        /* \"#utility.yul\":2586:2613   */\n      tag_135\n        /* \"#utility.yul\":2608:2612   */\n      dup3\n        /* \"#utility.yul\":2586:2613   */\n      tag_75\n      jump\t// in\n    tag_135:\n        /* \"#utility.yul\":2578:2584   */\n      dup2\n        /* \"#utility.yul\":2574:2614   */\n      add\n        /* \"#utility.yul\":2716:2722   */\n      dup2\n        /* \"#utility.yul\":2704:2714   */\n      dup2\n        /* \"#utility.yul\":2701:2723   */\n      lt\n        /* \"#utility.yul\":2680:2698   */\n      0xffffffffffffffff\n        /* \"#utility.yul\":2668:2678   */\n      dup3\n        /* \"#utility.yul\":2665:2699   */\n      gt\n        /* \"#utility.yul\":2662:2724   */\n      or\n        /* \"#utility.yul\":2659:2747   */\n      iszero\n      tag_136\n      jumpi\n        /* \"#utility.yul\":2727:2745   */\n      tag_137\n      tag_76\n      jump\t// in\n    tag_137:\n        /* \"#utility.yul\":2659:2747   */\n    tag_136:\n        /* \"#utility.yul\":2767:2777   */\n      dup1\n        /* \"#utility.yul\":2763:2765   */\n      0x40\n        /* \"#utility.yul\":2756:2778   */\n      mstore\n        /* \"#utility.yul\":2546:2784   */\n      pop\n        /* \"#utility.yul\":2503:2784   */\n      pop\n      pop\n      jump\t// out\n        /* \"#utility.yul\":2790:2919   */\n    tag_78:\n        /* \"#utility.yul\":2824:2830   */\n      0x00\n        /* \"#utility.yul\":2851:2871   */\n      tag_139\n      tag_63\n      jump\t// in\n    tag_139:\n        /* \"#utility.yul\":2841:2871   */\n      swap1\n      pop\n        /* \"#utility.yul\":2880:2913   */\n      tag_140\n        /* \"#utility.yul\":2908:2912   */\n      dup3\n        /* \"#utility.yul\":2900:2906   */\n      dup3\n        /* \"#utility.yul\":2880:2913   */\n      tag_77\n      jump\t// in\n    tag_140:\n        /* \"#utility.yul\":2790:2919   */\n      swap2\n      swap1\n      pop\n      jump\t// out\n        /* \"#utility.yul\":2925:3233   */\n    tag_79:\n        /* \"#utility.yul\":2987:2991   */\n      0x00\n        /* \"#utility.yul\":3077:3095   */\n      0xffffffffffffffff\n        /* \"#utility.yul\":3069:3075   */\n      dup3\n        /* \"#utility.yul\":3066:3096   */\n      gt\n        /* \"#utility.yul\":3063:3119   */\n      iszero\n      tag_142\n      jumpi\n        /* \"#utility.yul\":3099:3117   */\n      tag_143\n      tag_76\n      jump\t// in\n    tag_143:\n        /* \"#utility.yul\":3063:3119   */\n    tag_142:\n        /* \"#utility.yul\":3137:3166   */\n      tag_144\n        /* \"#utility.yul\":3159:3165   */\n      dup3\n        /* \"#utility.yul\":3137:3166   */\n      tag_75\n      jump\t// in\n    tag_144:\n        /* \"#utility.yul\":3129:3166   */\n      swap1\n      pop\n        /* \"#utility.yul\":3221:3225   */\n      0x20\n        /* \"#utility.yul\":3215:3219   */\n      dup2\n        /* \"#utility.yul\":3211:3226   */\n      add\n        /* \"#utility.yul\":3203:3226   */\n      swap1\n      pop\n        /* \"#utility.yul\":2925:3233   */\n      swap2\n      swap1\n      pop\n      jump\t// out\n        /* \"#utility.yul\":3239:3393   */\n    tag_80:\n        /* \"#utility.yul\":3323:3329   */\n      dup3\n        /* \"#utility.yul\":3318:3321   */\n      dup2\n        /* \"#utility.yul\":3313:3316   */\n      dup4\n        /* \"#utility.yul\":3300:3330   */\n      calldatacopy\n        /* \"#utility.yul\":3385:3386   */\n      0x00\n        /* \"#utility.yul\":3376:3382   */\n      dup4\n        /* \"#utility.yul\":3371:3374   */\n      dup4\n        /* \"#utility.yul\":3367:3383   */\n      add\n        /* \"#utility.yul\":3360:3387   */\n      mstore\n        /* \"#utility.yul\":3239:3393   */\n      pop\n      pop\n      pop\n      jump\t// out\n        /* \"#utility.yul\":3399:3811   */\n    tag_81:\n        /* \"#utility.yul\":3477:3482   */\n      0x00\n        /* \"#utility.yul\":3502:3568   */\n      tag_147\n        /* \"#utility.yul\":3518:3567   */\n      tag_148\n        /* \"#utility.yul\":3560:3566   */\n      dup5\n        /* \"#utility.yul\":3518:3567   */\n      tag_79\n      jump\t// in\n    tag_148:\n        /* \"#utility.yul\":3502:3568   */\n      tag_78\n      jump\t// in\n    tag_147:\n        /* \"#utility.yul\":3493:3568   */\n      swap1\n      pop\n        /* \"#utility.yul\":3591:3597   */\n      dup3\n        /* \"#utility.yul\":3584:3589   */\n      dup2\n        /* \"#utility.yul\":3577:3598   */\n      mstore\n        /* \"#utility.yul\":3629:3633   */\n      0x20\n        /* \"#utility.yul\":3622:3627   */\n      dup2\n        /* \"#utility.yul\":3618:3634   */\n      add\n        /* \"#utility.yul\":3667:3670   */\n      dup5\n        /* \"#utility.yul\":3658:3664   */\n      dup5\n        /* \"#utility.yul\":3653:3656   */\n      dup5\n        /* \"#utility.yul\":3649:3665   */\n      add\n        /* \"#utility.yul\":3646:3671   */\n      gt\n        /* \"#utility.yul\":3643:3755   */\n      iszero\n      tag_149\n      jumpi\n        /* \"#utility.yul\":3674:3753   */\n      tag_150\n      tag_74\n      jump\t// in\n    tag_150:\n        /* \"#utility.yul\":3643:3755   */\n    tag_149:\n        /* \"#utility.yul\":3764:3805   */\n      tag_151\n        /* \"#utility.yul\":3798:3804   */\n      dup5\n        /* \"#utility.yul\":3793:3796   */\n      dup3\n        /* \"#utility.yul\":3788:3791   */\n      dup6\n        /* \"#utility.yul\":3764:3805   */\n      tag_80\n      jump\t// in\n    tag_151:\n        /* \"#utility.yul\":3483:3811   */\n      pop\n        /* \"#utility.yul\":3399:3811   */\n      swap4\n      swap3\n      pop\n      pop\n      pop\n      jump\t// out\n        /* \"#utility.yul\":3831:4171   */\n    tag_82:\n        /* \"#utility.yul\":3887:3892   */\n      0x00\n        /* \"#utility.yul\":3936:3939   */\n      dup3\n        /* \"#utility.yul\":3929:3933   */\n      0x1f\n        /* \"#utility.yul\":3921:3927   */\n      dup4\n        /* \"#utility.yul\":3917:3934   */\n      add\n        /* \"#utility.yul\":3913:3940   */\n      slt\n        /* \"#utility.yul\":3903:4025   */\n      tag_153\n      jumpi\n        /* \"#utility.yul\":3944:4023   */\n      tag_154\n      tag_73\n      jump\t// in\n    tag_154:\n        /* \"#utility.yul\":3903:4025   */\n    tag_153:\n        /* \"#utility.yul\":4061:4067   */\n      dup2\n        /* \"#utility.yul\":4048:4068   */\n      calldataload\n        /* \"#utility.yul\":4086:4165   */\n      tag_155\n        /* \"#utility.yul\":4161:4164   */\n      dup5\n        /* \"#utility.yul\":4153:4159   */\n      dup3\n        /* \"#utility.yul\":4146:4150   */\n      0x20\n        /* \"#utility.yul\":4138:4144   */\n      dup7\n        /* \"#utility.yul\":4134:4151   */\n      add\n        /* \"#utility.yul\":4086:4165   */\n      tag_81\n      jump\t// in\n    tag_155:\n        /* \"#utility.yul\":4077:4165   */\n      swap2\n      pop\n        /* \"#utility.yul\":3893:4171   */\n      pop\n        /* \"#utility.yul\":3831:4171   */\n      swap3\n      swap2\n      pop\n      pop\n      jump\t// out\n        /* \"#utility.yul\":4177:4299   */\n    tag_83:\n        /* \"#utility.yul\":4250:4274   */\n      tag_157\n        /* \"#utility.yul\":4268:4273   */\n      dup2\n        /* \"#utility.yul\":4250:4274   */\n      tag_70\n      jump\t// in\n    tag_157:\n        /* \"#utility.yul\":4243:4248   */\n      dup2\n        /* \"#utility.yul\":4240:4275   */\n      eq\n        /* \"#utility.yul\":4230:4293   */\n      tag_158\n      jumpi\n        /* \"#utility.yul\":4289:4290   */\n      0x00\n        /* \"#utility.yul\":4286:4287   */\n      dup1\n        /* \"#utility.yul\":4279:4291   */\n      revert\n        /* \"#utility.yul\":4230:4293   */\n    tag_158:\n        /* \"#utility.yul\":4177:4299   */\n      pop\n      jump\t// out\n        /* \"#utility.yul\":4305:4444   */\n    tag_84:\n        /* \"#utility.yul\":4351:4356   */\n      0x00\n        /* \"#utility.yul\":4389:4395   */\n      dup2\n        /* \"#utility.yul\":4376:4396   */\n      calldataload\n        /* \"#utility.yul\":4367:4396   */\n      swap1\n      pop\n        /* \"#utility.yul\":4405:4438   */\n      tag_160\n        /* \"#utility.yul\":4432:4437   */\n      dup2\n        /* \"#utility.yul\":4405:4438   */\n      tag_83\n      jump\t// in\n    tag_160:\n        /* \"#utility.yul\":4305:4444   */\n      swap3\n      swap2\n      pop\n      pop\n      jump\t// out\n        /* \"#utility.yul\":4450:5249   */\n    tag_28:\n        /* \"#utility.yul\":4537:4543   */\n      0x00\n        /* \"#utility.yul\":4545:4551   */\n      dup1\n        /* \"#utility.yul\":4553:4559   */\n      0x00\n        /* \"#utility.yul\":4602:4604   */\n      0x60\n        /* \"#utility.yul\":4590:4599   */\n      dup5\n        /* \"#utility.yul\":4581:4588   */\n      dup7\n        /* \"#utility.yul\":4577:4600   */\n      sub\n        /* \"#utility.yul\":4573:4605   */\n      slt\n        /* \"#utility.yul\":4570:4689   */\n      iszero\n      tag_162\n      jumpi\n        /* \"#utility.yul\":4608:4687   */\n      tag_163\n      tag_64\n      jump\t// in\n    tag_163:\n        /* \"#utility.yul\":4570:4689   */\n    tag_162:\n        /* \"#utility.yul\":4756:4757   */\n      0x00\n        /* \"#utility.yul\":4745:4754   */\n      dup5\n        /* \"#utility.yul\":4741:4758   */\n      add\n        /* \"#utility.yul\":4728:4759   */\n      calldataload\n        /* \"#utility.yul\":4786:4804   */\n      0xffffffffffffffff\n        /* \"#utility.yul\":4778:4784   */\n      dup2\n        /* \"#utility.yul\":4775:4805   */\n      gt\n        /* \"#utility.yul\":4772:4889   */\n      iszero\n      tag_164\n      jumpi\n        /* \"#utility.yul\":4808:4887   */\n      tag_165\n      tag_65\n      jump\t// in\n    tag_165:\n        /* \"#utility.yul\":4772:4889   */\n    tag_164:\n        /* \"#utility.yul\":4913:4976   */\n      tag_166\n        /* \"#utility.yul\":4968:4975   */\n      dup7\n        /* \"#utility.yul\":4959:4965   */\n      dup3\n        /* \"#utility.yul\":4948:4957   */\n      dup8\n        /* \"#utility.yul\":4944:4966   */\n      add\n        /* \"#utility.yul\":4913:4976   */\n      tag_82\n      jump\t// in\n    tag_166:\n        /* \"#utility.yul\":4903:4976   */\n      swap4\n      pop\n        /* \"#utility.yul\":4699:4986   */\n      pop\n        /* \"#utility.yul\":5025:5027   */\n      0x20\n        /* \"#utility.yul\":5051:5104   */\n      tag_167\n        /* \"#utility.yul\":5096:5103   */\n      dup7\n        /* \"#utility.yul\":5087:5093   */\n      dup3\n        /* \"#utility.yul\":5076:5085   */\n      dup8\n        /* \"#utility.yul\":5072:5094   */\n      add\n        /* \"#utility.yul\":5051:5104   */\n      tag_68\n      jump\t// in\n    tag_167:\n        /* \"#utility.yul\":5041:5104   */\n      swap3\n      pop\n        /* \"#utility.yul\":4996:5114   */\n      pop\n        /* \"#utility.yul\":5153:5155   */\n      0x40\n        /* \"#utility.yul\":5179:5232   */\n      tag_168\n        /* \"#utility.yul\":5224:5231   */\n      dup7\n        /* \"#utility.yul\":5215:5221   */\n      dup3\n        /* \"#utility.yul\":5204:5213   */\n      dup8\n        /* \"#utility.yul\":5200:5222   */\n      add\n        /* \"#utility.yul\":5179:5232   */\n      tag_84\n      jump\t// in\n    tag_168:\n        /* \"#utility.yul\":5169:5232   */\n      swap2\n      pop\n        /* \"#utility.yul\":5124:5242   */\n      pop\n        /* \"#utility.yul\":4450:5249   */\n      swap3\n      pop\n      swap3\n      pop\n      swap3\n      jump\t// out\n        /* \"#utility.yul\":5255:5435   */\n    tag_85:\n        /* \"#utility.yul\":5303:5380   */\n      0x4e487b7100000000000000000000000000000000000000000000000000000000\n        /* \"#utility.yul\":5300:5301   */\n      0x00\n        /* \"#utility.yul\":5293:5381   */\n      mstore\n        /* \"#utility.yul\":5400:5404   */\n      0x12\n        /* \"#utility.yul\":5397:5398   */\n      0x04\n        /* \"#utility.yul\":5390:5405   */\n      mstore\n        /* \"#utility.yul\":5424:5428   */\n      0x24\n        /* \"#utility.yul\":5421:5422   */\n      0x00\n        /* \"#utility.yul\":5414:5429   */\n      revert\n        /* \"#utility.yul\":5441:5621   */\n    tag_86:\n        /* \"#utility.yul\":5489:5566   */\n      0x4e487b7100000000000000000000000000000000000000000000000000000000\n        /* \"#utility.yul\":5486:5487   */\n      0x00\n        /* \"#utility.yul\":5479:5567   */\n      mstore\n        /* \"#utility.yul\":5586:5590   */\n      0x11\n        /* \"#utility.yul\":5583:5584   */\n      0x04\n        /* \"#utility.yul\":5576:5591   */\n      mstore\n        /* \"#utility.yul\":5610:5614   */\n      0x24\n        /* \"#utility.yul\":5607:5608   */\n      0x00\n        /* \"#utility.yul\":5600:5615   */\n      revert\n        /* \"#utility.yul\":5627:5812   */\n    tag_45:\n        /* \"#utility.yul\":5667:5668   */\n      0x00\n        /* \"#utility.yul\":5684:5704   */\n      tag_172\n        /* \"#utility.yul\":5702:5703   */\n      dup3\n        /* \"#utility.yul\":5684:5704   */\n      tag_66\n      jump\t// in\n    tag_172:\n        /* \"#utility.yul\":5679:5704   */\n      swap2\n      pop\n        /* \"#utility.yul\":5718:5738   */\n      tag_173\n        /* \"#utility.yul\":5736:5737   */\n      dup4\n        /* \"#utility.yul\":5718:5738   */\n      tag_66\n      jump\t// in\n    tag_173:\n        /* \"#utility.yul\":5713:5738   */\n      swap3\n      pop\n        /* \"#utility.yul\":5757:5758   */\n      dup3\n        /* \"#utility.yul\":5747:5782   */\n      tag_174\n      jumpi\n        /* \"#utility.yul\":5762:5780   */\n      tag_175\n      tag_85\n      jump\t// in\n    tag_175:\n        /* \"#utility.yul\":5747:5782   */\n    tag_174:\n        /* \"#utility.yul\":5804:5805   */\n      dup3\n        /* \"#utility.yul\":5801:5802   */\n      dup3\n        /* \"#utility.yul\":5797:5806   */\n      div\n        /* \"#utility.yul\":5792:5806   */\n      swap1\n      pop\n        /* \"#utility.yul\":5627:5812   */\n      swap3\n      swap2\n      pop\n      pop\n      jump\t// out\n        /* \"#utility.yul\":5818:6051   */\n    tag_53:\n        /* \"#utility.yul\":5857:5860   */\n      0x00\n        /* \"#utility.yul\":5880:5904   */\n      tag_177\n        /* \"#utility.yul\":5898:5903   */\n      dup3\n        /* \"#utility.yul\":5880:5904   */\n      tag_66\n      jump\t// in\n    tag_177:\n        /* \"#utility.yul\":5871:5904   */\n      swap2\n      pop\n        /* \"#utility.yul\":5926:5992   */\n      0xffffffffffffffffffffffffffffffffffffffffffffffffffffffffffffffff\n        /* \"#utility.yul\":5919:5924   */\n      dup3\n        /* \"#utility.yul\":5916:5993   */\n      sub\n        /* \"#utility.yul\":5913:6016   */\n      tag_178\n      jumpi\n        /* \"#utility.yul\":5996:6014   */\n      tag_179\n      tag_86\n      jump\t// in\n    tag_179:\n        /* \"#utility.yul\":5913:6016   */\n    tag_178:\n        /* \"#utility.yul\":6043:6044   */\n      0x01\n        /* \"#utility.yul\":6036:6041   */\n      dup3\n        /* \"#utility.yul\":6032:6045   */\n      add\n        /* \"#utility.yul\":6025:6045   */\n      swap1\n      pop\n        /* \"#utility.yul\":5818:6051   */\n      swap2\n      swap1\n      pop\n      jump\t// out\n        /* \"#utility.yul\":6057:6156   */\n    tag_87:\n        /* \"#utility.yul\":6109:6115   */\n      0x00\n        /* \"#utility.yul\":6143:6148   */\n      dup2\n        /* \"#utility.yul\":6137:6149   */\n      mload\n        /* \"#utility.yul\":6127:6149   */\n      swap1\n      pop\n        /* \"#utility.yul\":6057:6156   */\n      swap2\n      swap1\n      pop\n      jump\t// out\n        /* \"#utility.yul\":6162:6342   */\n    tag_88:\n        /* \"#utility.yul\":6210:6287   */\n      0x4e487b7100000000000000000000000000000000000000000000000000000000\n        /* \"#utility.yul\":6207:6208   */\n      0x00\n        /* \"#utility.yul\":6200:6288   */\n      mstore\n        /* \"#utility.yul\":6307:6311   */\n      0x22\n        /* \"#utility.yul\":6304:6305   */\n      0x04\n        /* \"#utility.yul\":6297:6312   */\n      mstore\n        /* \"#utility.yul\":6331:6335   */\n      0x24\n        /* \"#utility.yul\":6328:6329   */\n      0x00\n        /* \"#utility.yul\":6321:6336   */\n      revert\n        /* \"#utility.yul\":6348:6668   */\n    tag_89:\n        /* \"#utility.yul\":6392:6398   */\n      0x00\n        /* \"#utility.yul\":6429:6430   */\n      0x02\n        /* \"#utility.yul\":6423:6427   */\n      dup3\n        /* \"#utility.yul\":6419:6431   */\n      div\n        /* \"#utility.yul\":6409:6431   */\n      swap1\n      pop\n        /* \"#utility.yul\":6476:6477   */\n      0x01\n        /* \"#utility.yul\":6470:6474   */\n      dup3\n        /* \"#utility.yul\":6466:6478   */\n      and\n        /* \"#utility.yul\":6497:6515   */\n      dup1\n        /* \"#utility.yul\":6487:6568   */\n      tag_183\n      jumpi\n        /* \"#utility.yul\":6553:6557   */\n      0x7f\n        /* \"#utility.yul\":6545:6551   */\n      dup3\n        /* \"#utility.yul\":6541:6558   */\n      and\n        /* \"#utility.yul\":6531:6558   */\n      swap2\n      pop\n        /* \"#utility.yul\":6487:6568   */\n    tag_183:\n        /* \"#utility.yul\":6615:6617   */\n      0x20\n        /* \"#utility.yul\":6607:6613   */\n      dup3\n        /* \"#utility.yul\":6604:6618   */\n      lt\n        /* \"#utility.yul\":6584:6602   */\n      dup2\n        /* \"#utility.yul\":6581:6619   */\n      sub\n        /* \"#utility.yul\":6578:6662   */\n      tag_184\n      jumpi\n        /* \"#utility.yul\":6634:6652   */\n      tag_185\n      tag_88\n      jump\t// in\n    tag_185:\n        /* \"#utility.yul\":6578:6662   */\n    tag_184:\n        /* \"#utility.yul\":6399:6668   */\n      pop\n        /* \"#utility.yul\":6348:6668   */\n      swap2\n      swap1\n      pop\n      jump\t// out\n        /* \"#utility.yul\":6674:6815   */\n    tag_90:\n        /* \"#utility.yul\":6723:6727   */\n      0x00\n        /* \"#utility.yul\":6746:6749   */\n      dup2\n        /* \"#utility.yul\":6738:6749   */\n      swap1\n      pop\n        /* \"#utility.yul\":6769:6772   */\n      dup2\n        /* \"#utility.yul\":6766:6767   */\n      0x00\n        /* \"#utility.yul\":6759:6773   */\n      mstore\n        /* \"#utility.yul\":6803:6807   */\n      0x20\n        /* \"#utility.yul\":6800:6801   */\n      0x00\n        /* \"#utility.yul\":6790:6808   */\n      keccak256\n        /* \"#utility.yul\":6782:6808   */\n      swap1\n      pop\n        /* \"#utility.yul\":6674:6815   */\n      swap2\n      swap1\n      pop\n      jump\t// out\n        /* \"#utility.yul\":6821:6914   */\n    tag_91:\n        /* \"#utility.yul\":6858:6864   */\n      0x00\n        /* \"#utility.yul\":6905:6907   */\n      0x20\n        /* \"#utility.yul\":6900:6902   */\n      0x1f\n        /* \"#utility.yul\":6893:6898   */\n      dup4\n        /* \"#utility.yul\":6889:6903   */\n      add\n        /* \"#utility.yul\":6885:6908   */\n      div\n        /* \"#utility.yul\":6875:6908   */\n      swap1\n      pop\n        /* \"#utility.yul\":6821:6914   */\n      swap2\n      swap1\n      pop\n      jump\t// out\n        /* \"#utility.yul\":6920:7027   */\n    tag_92:\n        /* \"#utility.yul\":6964:6972   */\n      0x00\n        /* \"#utility.yul\":7014:7019   */\n      dup3\n        /* \"#utility.yul\":7008:7012   */\n      dup3\n        /* \"#utility.yul\":7004:7020   */\n      shl\n        /* \"#utility.yul\":6983:7020   */\n      swap1\n      pop\n        /* \"#utility.yul\":6920:7027   */\n      swap3\n      swap2\n      pop\n      pop\n      jump\t// out\n        /* \"#utility.yul\":7033:7426   */\n    tag_93:\n        /* \"#utility.yul\":7102:7108   */\n      0x00\n        /* \"#utility.yul\":7152:7153   */\n      0x08\n        /* \"#utility.yul\":7140:7150   */\n      dup4\n        /* \"#utility.yul\":7136:7154   */\n      mul\n        /* \"#utility.yul\":7175:7272   */\n      tag_190\n        /* \"#utility.yul\":7205:7271   */\n      0xffffffffffffffffffffffffffffffffffffffffffffffffffffffffffffffff\n        /* \"#utility.yul\":7194:7203   */\n      dup3\n        /* \"#utility.yul\":7175:7272   */\n      tag_92\n      jump\t// in\n    tag_190:\n        /* \"#utility.yul\":7293:7332   */\n      tag_191\n        /* \"#utility.yul\":7323:7331   */\n      dup7\n        /* \"#utility.yul\":7312:7321   */\n      dup4\n        /* \"#utility.yul\":7293:7332   */\n      tag_92\n      jump\t// in\n    tag_191:\n        /* \"#utility.yul\":7281:7332   */\n      swap6\n      pop\n        /* \"#utility.yul\":7365:7369   */\n      dup1\n        /* \"#utility.yul\":7361:7370   */\n      not\n        /* \"#utility.yul\":7354:7359   */\n      dup5\n        /* \"#utility.yul\":7350:7371   */\n      and\n        /* \"#utility.yul\":7341:7371   */\n      swap4\n      pop\n        /* \"#utility.yul\":7414:7418   */\n      dup1\n        /* \"#utility.yul\":7404:7412   */\n      dup7\n        /* \"#utility.yul\":7400:7419   */\n      and\n        /* \"#utility.yul\":7393:7398   */\n      dup5\n        /* \"#utility.yul\":7390:7420   */\n      or\n        /* \"#utility.yul\":7380:7420   */\n      swap3\n      pop\n        /* \"#utility.yul\":7109:7426   */\n      pop\n      pop\n        /* \"#utility.yul\":7033:7426   */\n      swap4\n      swap3\n      pop\n      pop\n      pop\n      jump\t// out\n        /* \"#utility.yul\":7432:7492   */\n    tag_94:\n        /* \"#utility.yul\":7460:7463   */\n      0x00\n        /* \"#utility.yul\":7481:7486   */\n      dup2\n        /* \"#utility.yul\":7474:7486   */\n      swap1\n      pop\n        /* \"#utility.yul\":7432:7492   */\n      swap2\n      swap1\n      pop\n      jump\t// out\n        /* \"#utility.yul\":7498:7640   */\n    tag_95:\n        /* \"#utility.yul\":7548:7557   */\n      0x00\n        /* \"#utility.yul\":7581:7634   */\n      tag_194\n        /* \"#utility.yul\":7599:7633   */\n      tag_195\n        /* \"#utility.yul\":7608:7632   */\n      tag_196\n        /* \"#utility.yul\":7626:7631   */\n      dup5\n        /* \"#utility.yul\":7608:7632   */\n      tag_66\n      jump\t// in\n    tag_196:\n        /* \"#utility.yul\":7599:7633   */\n      tag_94\n      jump\t// in\n    tag_195:\n        /* \"#utility.yul\":7581:7634   */\n      tag_66\n      jump\t// in\n    tag_194:\n        /* \"#utility.yul\":7568:7634   */\n      swap1\n      pop\n        /* \"#utility.yul\":7498:7640   */\n      swap2\n      swap1\n      pop\n      jump\t// out\n        /* \"#utility.yul\":7646:7721   */\n    tag_96:\n        /* \"#utility.yul\":7689:7692   */\n      0x00\n        /* \"#utility.yul\":7710:7715   */\n      dup2\n        /* \"#utility.yul\":7703:7715   */\n      swap1\n      pop\n        /* \"#utility.yul\":7646:7721   */\n      swap2\n      swap1\n      pop\n      jump\t// out\n        /* \"#utility.yul\":7727:7996   */\n    tag_97:\n        /* \"#utility.yul\":7837:7876   */\n      tag_199\n        /* \"#utility.yul\":7868:7875   */\n      dup4\n        /* \"#utility.yul\":7837:7876   */\n      tag_95\n      jump\t// in\n    tag_199:\n        /* \"#utility.yul\":7898:7989   */\n      tag_200\n        /* \"#utility.yul\":7947:7988   */\n      tag_201\n        /* \"#utility.yul\":7971:7987   */\n      dup3\n        /* \"#utility.yul\":7947:7988   */\n      tag_96\n      jump\t// in\n    tag_201:\n        /* \"#utility.yul\":7939:7945   */\n      dup5\n        /* \"#utility.yul\":7932:7936   */\n      dup5\n        /* \"#utility.yul\":7926:7937   */\n      sload\n        /* \"#utility.yul\":7898:7989   */\n      tag_93\n      jump\t// in\n    tag_200:\n        /* \"#utility.yul\":7892:7896   */\n      dup3\n        /* \"#utility.yul\":7885:7990   */\n      sstore\n        /* \"#utility.yul\":7803:7996   */\n      pop\n        /* \"#utility.yul\":7727:7996   */\n      pop\n      pop\n      pop\n      jump\t// out\n        /* \"#utility.yul\":8002:8075   */\n    tag_98:\n        /* \"#utility.yul\":8047:8050   */\n      0x00\n        /* \"#utility.yul\":8002:8075   */\n      swap1\n      jump\t// out\n        /* \"#utility.yul\":8081:8270   */\n    tag_99:\n        /* \"#utility.yul\":8158:8190   */\n      tag_204\n      tag_98\n      jump\t// in\n    tag_204:\n        /* \"#utility.yul\":8199:8264   */\n      tag_205\n        /* \"#utility.yul\":8257:8263   */\n      dup2\n        /* \"#utility.yul\":8249:8255   */\n      dup5\n        /* \"#utility.yul\":8243:8247   */\n      dup5\n        /* \"#utility.yul\":8199:8264   */\n      tag_97\n      jump\t// in\n    tag_205:\n        /* \"#utility.yul\":8134:8270   */\n      pop\n        /* \"#utility.yul\":8081:8270   */\n      pop\n      pop\n      jump\t// out\n        /* \"#utility.yul\":8276:8462   */\n    tag_100:\n        /* \"#utility.yul\":8336:8456   */\n    tag_207:\n        /* \"#utility.yul\":8353:8356   */\n      dup2\n        /* \"#utility.yul\":8346:8351   */\n      dup2\n        /* \"#utility.yul\":8343:8357   */\n      lt\n        /* \"#utility.yul\":8336:8456   */\n      iszero\n      tag_209\n      jumpi\n        /* \"#utility.yul\":8407:8446   */\n      tag_210\n        /* \"#utility.yul\":8444:8445   */\n      0x00\n        /* \"#utility.yul\":8437:8442   */\n      dup3\n        /* \"#utility.yul\":8407:8446   */\n      tag_99\n      jump\t// in\n    tag_210:\n        /* \"#utility.yul\":8380:8381   */\n      0x01\n        /* \"#utility.yul\":8373:8378   */\n      dup2\n        /* \"#utility.yul\":8369:8382   */\n      add\n        /* \"#utility.yul\":8360:8382   */\n      swap1\n      pop\n        /* \"#utility.yul\":8336:8456   */\n      jump(tag_207)\n    tag_209:\n        /* \"#utility.yul\":8276:8462   */\n      pop\n      pop\n      jump\t// out\n        /* \"#utility.yul\":8468:9011   */\n    tag_101:\n        /* \"#utility.yul\":8569:8571   */\n      0x1f\n        /* \"#utility.yul\":8564:8567   */\n      dup3\n        /* \"#utility.yul\":8561:8572   */\n      gt\n        /* \"#utility.yul\":8558:9004   */\n      iszero\n      tag_212\n      jumpi\n        /* \"#utility.yul\":8603:8641   */\n      tag_213\n        /* \"#utility.yul\":8635:8640   */\n      dup2\n        /* \"#utility.yul\":8603:8641   */\n      tag_90\n      jump\t// in\n    tag_213:\n        /* \"#utility.yul\":8687:8716   */\n      tag_214\n        /* \"#utility.yul\":8705:8715   */\n      dup5\n        /* \"#utility.yul\":8687:8716   */\n      tag_91\n      jump\t// in\n    tag_214:\n        /* \"#utility.yul\":8677:8685   */\n      dup2\n        /* \"#utility.yul\":8673:8717   */\n      add\n        /* \"#utility.yul\":8870:8872   */\n      0x20\n        /* \"#utility.yul\":8858:8868   */\n      dup6\n        /* \"#utility.yul\":8855:8873   */\n      lt\n        /* \"#utility.yul\":8852:8901   */\n      iszero\n      tag_215\n      jumpi\n        /* \"#utility.yul\":8891:8899   */\n      dup2\n        /* \"#utility.yul\":8876:8899   */\n      swap1\n      pop\n        /* \"#utility.yul\":8852:8901   */\n    tag_215:\n        /* \"#utility.yul\":8914:8994   */\n      tag_216\n        /* \"#utility.yul\":8970:8992   */\n      tag_217\n        /* \"#utility.yul\":8988:8991   */\n      dup6\n        /* \"#utility.yul\":8970:8992   */\n      tag_91\n      jump\t// in\n    tag_217:\n        /* \"#utility.yul\":8960:8968   */\n      dup4\n        /* \"#utility.yul\":8956:8993   */\n      add\n        /* \"#utility.yul\":8943:8954   */\n      dup3\n        /* \"#utility.yul\":8914:8994   */\n      tag_100\n      jump\t// in\n    tag_216:\n        /* \"#utility.yul\":8573:9004   */\n      pop\n      pop\n        /* \"#utility.yul\":8558:9004   */\n    tag_212:\n        /* \"#utility.yul\":8468:9011   */\n      pop\n      pop\n      pop\n      jump\t// out\n        /* \"#utility.yul\":9017:9134   */\n    tag_102:\n        /* \"#utility.yul\":9071:9079   */\n      0x00\n        /* \"#utility.yul\":9121:9126   */\n      dup3\n        /* \"#utility.yul\":9115:9119   */\n      dup3\n        /* \"#utility.yul\":9111:9127   */\n      shr\n        /* \"#utility.yul\":9090:9127   */\n      swap1\n      pop\n        /* \"#utility.yul\":9017:9134   */\n      swap3\n      swap2\n      pop\n      pop\n      jump\t// out\n        /* \"#utility.yul\":9140:9309   */\n    tag_103:\n        /* \"#utility.yul\":9184:9190   */\n      0x00\n        /* \"#utility.yul\":9217:9268   */\n      tag_220\n        /* \"#utility.yul\":9265:9266   */\n      0x00\n        /* \"#utility.yul\":9261:9267   */\n      not\n        /* \"#utility.yul\":9253:9258   */\n      dup5\n        /* \"#utility.yul\":9250:9251   */\n      0x08\n        /* \"#utility.yul\":9246:9259   */\n      mul\n        /* \"#utility.yul\":9217:9268   */\n      tag_102\n      jump\t// in\n    tag_220:\n        /* \"#utility.yul\":9213:9269   */\n      not\n        /* \"#utility.yul\":9298:9302   */\n      dup1\n        /* \"#utility.yul\":9292:9296   */\n      dup4\n        /* \"#utility.yul\":9288:9303   */\n      and\n        /* \"#utility.yul\":9278:9303   */\n      swap2\n      pop\n        /* \"#utility.yul\":9191:9309   */\n      pop\n        /* \"#utility.yul\":9140:9309   */\n      swap3\n      swap2\n      pop\n      pop\n      jump\t// out\n        /* \"#utility.yul\":9314:9609   */\n    tag_104:\n        /* \"#utility.yul\":9390:9394   */\n      0x00\n        /* \"#utility.yul\":9536:9565   */\n      tag_222\n        /* \"#utility.yul\":9561:9564   */\n      dup4\n        /* \"#utility.yul\":9555:9559   */\n      dup4\n        /* \"#utility.yul\":9536:9565   */\n      tag_103\n      jump\t// in\n    tag_222:\n        /* \"#utility.yul\":9528:9565   */\n      swap2\n      pop\n        /* \"#utility.yul\":9598:9601   */\n      dup3\n        /* \"#utility.yul\":9595:9596   */\n      0x02\n        /* \"#utility.yul\":9591:9602   */\n      mul\n        /* \"#utility.yul\":9585:9589   */\n      dup3\n        /* \"#utility.yul\":9582:9603   */\n      or\n        /* \"#utility.yul\":9574:9603   */\n      swap1\n      pop\n        /* \"#utility.yul\":9314:9609   */\n      swap3\n      swap2\n      pop\n      pop\n      jump\t// out\n        /* \"#utility.yul\":9614:11009   */\n    tag_55:\n        /* \"#utility.yul\":9731:9768   */\n      tag_224\n        /* \"#utility.yul\":9764:9767   */\n      dup3\n        /* \"#utility.yul\":9731:9768   */\n      tag_87\n      jump\t// in\n    tag_224:\n        /* \"#utility.yul\":9833:9851   */\n      0xffffffffffffffff\n        /* \"#utility.yul\":9825:9831   */\n      dup2\n        /* \"#utility.yul\":9822:9852   */\n      gt\n        /* \"#utility.yul\":9819:9875   */\n      iszero\n      tag_225\n      jumpi\n        /* \"#utility.yul\":9855:9873   */\n      tag_226\n      tag_76\n      jump\t// in\n    tag_226:\n        /* \"#utility.yul\":9819:9875   */\n    tag_225:\n        /* \"#utility.yul\":9899:9937   */\n      tag_227\n        /* \"#utility.yul\":9931:9935   */\n      dup3\n        /* \"#utility.yul\":9925:9936   */\n      sload\n        /* \"#utility.yul\":9899:9937   */\n      tag_89\n      jump\t// in\n    tag_227:\n        /* \"#utility.yul\":9984:10051   */\n      tag_228\n        /* \"#utility.yul\":10044:10050   */\n      dup3\n        /* \"#utility.yul\":10036:10042   */\n      dup3\n        /* \"#utility.yul\":10030:10034   */\n      dup6\n        /* \"#utility.yul\":9984:10051   */\n      tag_101\n      jump\t// in\n    tag_228:\n        /* \"#utility.yul\":10078:10079   */\n      0x00\n        /* \"#utility.yul\":10102:10106   */\n      0x20\n        /* \"#utility.yul\":10089:10106   */\n      swap1\n      pop\n        /* \"#utility.yul\":10134:10136   */\n      0x1f\n        /* \"#utility.yul\":10126:10132   */\n      dup4\n        /* \"#utility.yul\":10123:10137   */\n      gt\n        /* \"#utility.yul\":10151:10152   */\n      0x01\n        /* \"#utility.yul\":10146:10764   */\n      dup2\n      eq\n      tag_230\n      jumpi\n        /* \"#utility.yul\":10808:10809   */\n      0x00\n        /* \"#utility.yul\":10825:10831   */\n      dup5\n        /* \"#utility.yul\":10822:10899   */\n      iszero\n      tag_231\n      jumpi\n        /* \"#utility.yul\":10874:10883   */\n      dup3\n        /* \"#utility.yul\":10869:10872   */\n      dup8\n        /* \"#utility.yul\":10865:10884   */\n      add\n        /* \"#utility.yul\":10859:10885   */\n      mload\n        /* \"#utility.yul\":10850:10885   */\n      swap1\n      pop\n        /* \"#utility.yul\":10822:10899   */\n    tag_231:\n        /* \"#utility.yul\":10925:10992   */\n      tag_232\n        /* \"#utility.yul\":10985:10991   */\n      dup6\n        /* \"#utility.yul\":10978:10983   */\n      dup3\n        /* \"#utility.yul\":10925:10992   */\n      tag_104\n      jump\t// in\n    tag_232:\n        /* \"#utility.yul\":10919:10923   */\n      dup7\n        /* \"#utility.yul\":10912:10993   */\n      sstore\n        /* \"#utility.yul\":10781:11003   */\n      pop\n        /* \"#utility.yul\":10116:11003   */\n      jump(tag_229)\n        /* \"#utility.yul\":10146:10764   */\n    tag_230:\n        /* \"#utility.yul\":10198:10202   */\n      0x1f\n        /* \"#utility.yul\":10194:10203   */\n      not\n        /* \"#utility.yul\":10186:10192   */\n      dup5\n        /* \"#utility.yul\":10182:10204   */\n      and\n        /* \"#utility.yul\":10232:10269   */\n      tag_233\n        /* \"#utility.yul\":10264:10268   */\n      dup7\n        /* \"#utility.yul\":10232:10269   */\n      tag_90\n      jump\t// in\n    tag_233:\n        /* \"#utility.yul\":10291:10292   */\n      0x00\n        /* \"#utility.yul\":10305:10513   */\n    tag_234:\n        /* \"#utility.yul\":10319:10326   */\n      dup3\n        /* \"#utility.yul\":10316:10317   */\n      dup2\n        /* \"#utility.yul\":10313:10327   */\n      lt\n        /* \"#utility.yul\":10305:10513   */\n      iszero\n      tag_236\n      jumpi\n        /* \"#utility.yul\":10398:10407   */\n      dup5\n        /* \"#utility.yul\":10393:10396   */\n      dup10\n        /* \"#utility.yul\":10389:10408   */\n      add\n        /* \"#utility.yul\":10383:10409   */\n      mload\n        /* \"#utility.yul\":10375:10381   */\n      dup3\n        /* \"#utility.yul\":10368:10410   */\n      sstore\n        /* \"#utility.yul\":10449:10450   */\n      0x01\n        /* \"#utility.yul\":10441:10447   */\n      dup3\n        /* \"#utility.yul\":10437:10451   */\n      add\n        /* \"#utility.yul\":10427:10451   */\n      swap2\n      pop\n        /* \"#utility.yul\":10496:10498   */\n      0x20\n        /* \"#utility.yul\":10485:10494   */\n      dup6\n        /* \"#utility.yul\":10481:10499   */\n      add\n        /* \"#utility.yul\":10468:10499   */\n      swap5\n      pop\n        /* \"#utility.yul\":10342:10346   */\n      0x20\n        /* \"#utility.yul\":10339:10340   */\n      dup2\n        /* \"#utility.yul\":10335:10347   */\n      add\n        /* \"#utility.yul\":10330:10347   */\n      swap1\n      pop\n        /* \"#utility.yul\":10305:10513   */\n      jump(tag_234)\n    tag_236:\n        /* \"#utility.yul\":10541:10547   */\n      dup7\n        /* \"#utility.yul\":10532:10539   */\n      dup4\n        /* \"#utility.yul\":10529:10548   */\n      lt\n        /* \"#utility.yul\":10526:10705   */\n      iszero\n      tag_237\n      jumpi\n        /* \"#utility.yul\":10599:10608   */\n      dup5\n        /* \"#utility.yul\":10594:10597   */\n      dup10\n        /* \"#utility.yul\":10590:10609   */\n      add\n        /* \"#utility.yul\":10584:10610   */\n      mload\n        /* \"#utility.yul\":10642:10690   */\n      tag_238\n        /* \"#utility.yul\":10684:10688   */\n      0x1f\n        /* \"#utility.yul\":10676:10682   */\n      dup10\n        /* \"#utility.yul\":10672:10689   */\n      and\n        /* \"#utility.yul\":10661:10670   */\n      dup3\n        /* \"#utility.yul\":10642:10690   */\n      tag_103\n      jump\t// in\n    tag_238:\n        /* \"#utility.yul\":10634:10640   */\n      dup4\n        /* \"#utility.yul\":10627:10691   */\n      sstore\n        /* \"#utility.yul\":10549:10705   */\n      pop\n        /* \"#utility.yul\":10526:10705   */\n    tag_237:\n        /* \"#utility.yul\":10751:10752   */\n      0x01\n        /* \"#utility.yul\":10747:10748   */\n      0x02\n        /* \"#utility.yul\":10739:10745   */\n      dup9\n        /* \"#utility.yul\":10735:10749   */\n      mul\n        /* \"#utility.yul\":10731:10753   */\n      add\n        /* \"#utility.yul\":10725:10729   */\n      dup9\n        /* \"#utility.yul\":10718:10754   */\n      sstore\n        /* \"#utility.yul\":10153:10764   */\n      pop\n      pop\n      pop\n        /* \"#utility.yul\":10116:11003   */\n    tag_229:\n      pop\n        /* \"#utility.yul\":9706:11009   */\n      pop\n      pop\n      pop\n        /* \"#utility.yul\":9614:11009   */\n      pop\n      pop\n      jump\t// out\n\n    auxdata: 0xa26469706673582212208f45f76a956dac29f92c5ad44b334be850256ddc7cd024fda79361d9aeec488364736f6c634300080f0033\n}\n","bytecode":{"linkReferences":{},"object":"60806040523480156200001157600080fd5b5060405162000e0938038062000e0983398181016040528101906200003791906200012b565b806000806101000a81548173ffffffffffffffffffffffffffffffffffffffff021916908373ffffffffffffffffffffffffffffffffffffffff16021790555081600381905550505062000172565b600080fd5b6000819050919050565b620000a0816200008b565b8114620000ac57600080fd5b50565b600081519050620000c08162000095565b92915050565b600073ffffffffffffffffffffffffffffffffffffffff82169050919050565b6000620000f382620000c6565b9050919050565b6200010581620000e6565b81146200011157600080fd5b50565b6000815190506200012581620000fa565b92915050565b6000806040838503121562000145576200014462000086565b5b60006200015585828601620000af565b9250506020620001688582860162000114565b9150509250929050565b610c8780620001826000396000f3fe6080604052600436106100705760003560e01c80638a9cfd551161004e5780638a9cfd55146100f4578063937e09b11461011d578063d7bb99ba14610148578063d7d1bbdb1461015257610070565b80630344100614610075578063481c6a751461009e57806382fde093146100c9575b600080fd5b34801561008157600080fd5b5061009c600480360381019061009791906105fd565b61017b565b005b3480156100aa57600080fd5b506100b36102b4565b6040516100c0919061066b565b60405180910390f35b3480156100d557600080fd5b506100de6102d8565b6040516100eb9190610695565b60405180910390f35b34801561010057600080fd5b5061011b60048036038101906101169190610822565b6102de565b005b34801561012957600080fd5b506101326103ee565b60405161013f9190610695565b60405180910390f35b6101506103f4565b005b34801561015e57600080fd5b50610179600480360381019061017491906105fd565b610475565b005b60008054906101000a900473ffffffffffffffffffffffffffffffffffffffff1673ffffffffffffffffffffffffffffffffffffffff163373ffffffffffffffffffffffffffffffffffffffff16146101d357600080fd5b60006005600083815260200190815260200160002090508060020160149054906101000a900460ff161561020657600080fd5b600260045461021591906108ef565b81600301541161022457600080fd5b8060020160009054906101000a900473ffffffffffffffffffffffffffffffffffffffff1673ffffffffffffffffffffffffffffffffffffffff166108fc82600101549081150290604051600060405180830381858888f19350505050158015610292573d6000803e3d6000fd5b5060018160020160146101000a81548160ff0219169083151502179055505050565b60008054906101000a900473ffffffffffffffffffffffffffffffffffffffff1681565b60045481565b60008054906101000a900473ffffffffffffffffffffffffffffffffffffffff1673ffffffffffffffffffffffffffffffffffffffff163373ffffffffffffffffffffffffffffffffffffffff161461033657600080fd5b6000600560006001600081548092919061034f90610920565b9190505581526020019081526020016000209050838160000190816103749190610b7f565b50828160010181905550818160020160006101000a81548173ffffffffffffffffffffffffffffffffffffffff021916908373ffffffffffffffffffffffffffffffffffffffff16021790555060008160020160146101000a81548160ff0219169083151502179055506000816003018190555050505050565b60035481565b60035434101561040357600080fd5b6001600260003373ffffffffffffffffffffffffffffffffffffffff1673ffffffffffffffffffffffffffffffffffffffff16815260200190815260200160002060006101000a81548160ff0219169083151502179055506004600081548092919061046e90610920565b9190505550565b6000600560008381526020019081526020016000209050600260003373ffffffffffffffffffffffffffffffffffffffff1673ffffffffffffffffffffffffffffffffffffffff16815260200190815260200160002060009054906101000a900460ff166104e257600080fd5b8060040160003373ffffffffffffffffffffffffffffffffffffffff1673ffffffffffffffffffffffffffffffffffffffff16815260200190815260200160002060009054906101000a900460ff161561053b57600080fd5b60018160040160003373ffffffffffffffffffffffffffffffffffffffff1673ffffffffffffffffffffffffffffffffffffffff16815260200190815260200160002060006101000a81548160ff0219169083151502179055508060030160008154809291906105aa90610920565b91905055505050565b6000604051905090565b600080fd5b600080fd5b6000819050919050565b6105da816105c7565b81146105e557600080fd5b50565b6000813590506105f7816105d1565b92915050565b600060208284031215610613576106126105bd565b5b6000610621848285016105e8565b91505092915050565b600073ffffffffffffffffffffffffffffffffffffffff82169050919050565b60006106558261062a565b9050919050565b6106658161064a565b82525050565b6000602082019050610680600083018461065c565b92915050565b61068f816105c7565b82525050565b60006020820190506106aa6000830184610686565b92915050565b600080fd5b600080fd5b6000601f19601f8301169050919050565b7f4e487b7100000000000000000000000000000000000000000000000000000000600052604160045260246000fd5b610703826106ba565b810181811067ffffffffffffffff82111715610722576107216106cb565b5b80604052505050565b60006107356105b3565b905061074182826106fa565b919050565b600067ffffffffffffffff821115610761576107606106cb565b5b61076a826106ba565b9050602081019050919050565b82818337600083830152505050565b600061079961079484610746565b61072b565b9050828152602081018484840111156107b5576107b46106b5565b5b6107c0848285610777565b509392505050565b600082601f8301126107dd576107dc6106b0565b5b81356107ed848260208601610786565b91505092915050565b6107ff8161064a565b811461080a57600080fd5b50565b60008135905061081c816107f6565b92915050565b60008060006060848603121561083b5761083a6105bd565b5b600084013567ffffffffffffffff811115610859576108586105c2565b5b610865868287016107c8565b9350506020610876868287016105e8565b92505060406108878682870161080d565b9150509250925092565b7f4e487b7100000000000000000000000000000000000000000000000000000000600052601260045260246000fd5b7f4e487b7100000000000000000000000000000000000000000000000000000000600052601160045260246000fd5b60006108fa826105c7565b9150610905836105c7565b92508261091557610914610891565b5b828204905092915050565b600061092b826105c7565b91507fffffffffffffffffffffffffffffffffffffffffffffffffffffffffffffffff820361095d5761095c6108c0565b5b600182019050919050565b600081519050919050565b7f4e487b7100000000000000000000000000000000000000000000000000000000600052602260045260246000fd5b600060028204905060018216806109ba57607f821691505b6020821081036109cd576109cc610973565b5b50919050565b60008190508160005260206000209050919050565b60006020601f8301049050919050565b600082821b905092915050565b600060088302610a357fffffffffffffffffffffffffffffffffffffffffffffffffffffffffffffffff826109f8565b610a3f86836109f8565b95508019841693508086168417925050509392505050565b6000819050919050565b6000610a7c610a77610a72846105c7565b610a57565b6105c7565b9050919050565b6000819050919050565b610a9683610a61565b610aaa610aa282610a83565b848454610a05565b825550505050565b600090565b610abf610ab2565b610aca818484610a8d565b505050565b5b81811015610aee57610ae3600082610ab7565b600181019050610ad0565b5050565b601f821115610b3357610b04816109d3565b610b0d846109e8565b81016020851015610b1c578190505b610b30610b28856109e8565b830182610acf565b50505b505050565b600082821c905092915050565b6000610b5660001984600802610b38565b1980831691505092915050565b6000610b6f8383610b45565b9150826002028217905092915050565b610b8882610968565b67ffffffffffffffff811115610ba157610ba06106cb565b5b610bab82546109a2565b610bb6828285610af2565b600060209050601f831160018114610be95760008415610bd7578287015190505b610be18582610b63565b865550610c49565b601f198416610bf7866109d3565b60005b82811015610c1f57848901518255600182019150602085019450602081019050610bfa565b86831015610c3c5784890151610c38601f891682610b45565b8355505b6001600288020188555050505b50505050505056fea26469706673582212208f45f76a956dac29f92c5ad44b334be850256ddc7cd024fda79361d9aeec488364736f6c634300080f0033","opcodes":"PUSH1 0x80 PUSH1 0x40 MSTORE CALLVALUE DUP1 ISZERO PUSH3 0x11 JUMPI PUSH1 0x0 DUP1 REVERT JUMPDEST POP PUSH1 0x40 MLOAD PUSH3 0xE09 CODESIZE SUB DUP1 PUSH3 0xE09 DUP4 CODECOPY DUP2 DUP2 ADD PUSH1 0x40 MSTORE DUP2 ADD SWAP1 PUSH3 0x37 SWAP2 SWAP1 PUSH3 0x12B JUMP JUMPDEST DUP1 PUSH1 0x0 DUP1 PUSH2 0x100 EXP DUP2 SLOAD DUP2 PUSH20 0xFFFFFFFFFFFFFFFFFFFFFFFFFFFFFFFFFFFFFFFF MUL NOT AND SWAP1 DUP4 PUSH20 0xFFFFFFFFFFFFFFFFFFFFFFFFFFFFFFFFFFFFFFFF AND MUL OR SWAP1 SSTORE POP DUP2 PUSH1 0x3 DUP2 SWAP1 SSTORE POP POP POP PUSH3 0x172 JUMP JUMPDEST PUSH1 0x0 DUP1 REVERT JUMPDEST PUSH1 0x0 DUP2 SWAP1 POP SWAP2 SWAP1 POP JUMP JUMPDEST PUSH3 0xA0 DUP2 PUSH3 0x8B JUMP JUMPDEST DUP2 EQ PUSH3 0xAC JUMPI PUSH1 0x0 DUP1 REVERT JUMPDEST POP JUMP JUMPDEST PUSH1 0x0 DUP2 MLOAD SWAP1 POP PUSH3 0xC0 DUP2 PUSH3 0x95 JUMP JUMPDEST SWAP3 SWAP2 POP POP JUMP JUMPDEST PUSH1 0x0 PUSH20 0xFFFFFFFFFFFFFFFFFFFFFFFFFFFFFFFFFFFFFFFF DUP3 AND SWAP1 POP SWAP2 SWAP1 POP JUMP JUMPDEST PUSH1 0x0 PUSH3 0xF3 DUP3 PUSH3 0xC6 JUMP JUMPDEST SWAP1 POP SWAP2 SWAP1 POP JUMP JUMPDEST PUSH3 0x105 DUP2 PUSH3 0xE6 JUMP JUMPDEST DUP2 EQ PUSH3 0x111 JUMPI PUSH1 0x0 DUP1 REVERT JUMPDEST POP JUMP JUMPDEST PUSH1 0x0 DUP2 MLOAD SWAP1 POP PUSH3 0x125 DUP2 PUSH3 0xFA JUMP JUMPDEST SWAP3 SWAP2 POP POP JUMP JUMPDEST PUSH1 0x0 DUP1 PUSH1 0x40 DUP4 DUP6 SUB SLT ISZERO PUSH3 0x145 JUMPI PUSH3 0x144 PUSH3 0x86 JUMP JUMPDEST JUMPDEST PUSH1 0x0 PUSH3 0x155 DUP6 DUP3 DUP7 ADD PUSH3 0xAF JUMP JUMPDEST SWAP3 POP POP PUSH1 0x20 PUSH3 0x168 DUP6 DUP3 DUP7 ADD PUSH3 0x114 JUMP JUMPDEST SWAP2 POP POP SWAP3 POP SWAP3 SWAP1 POP JUMP JUMPDEST PUSH2 0xC87 DUP1 PUSH3 0x182 PUSH1 0x0 CODECOPY PUSH1 0x0 RETURN INVALID PUSH1 0x80 PUSH1 0x40 MSTORE PUSH1 0x4 CALLDATASIZE LT PUSH2 0x70 JUMPI PUSH1 0x0 CALLDATALOAD PUSH1 0xE0 SHR DUP1 PUSH4 0x8A9CFD55 GT PUSH2 0x4E JUMPI DUP1 PUSH4 0x8A9CFD55 EQ PUSH2 0xF4 JUMPI DUP1 PUSH4 0x937E09B1 EQ PUSH2 0x11D JUMPI DUP1 PUSH4 0xD7BB99BA EQ PUSH2 0x148 JUMPI DUP1 PUSH4 0xD7D1BBDB EQ PUSH2 0x152 JUMPI PUSH2 0x70 JUMP JUMPDEST DUP1 PUSH4 0x3441006 EQ PUSH2 0x75 JUMPI DUP1 PUSH4 0x481C6A75 EQ PUSH2 0x9E JUMPI DUP1 PUSH4 0x82FDE093 EQ PUSH2 0xC9 JUMPI JUMPDEST PUSH1 0x0 DUP1 REVERT JUMPDEST CALLVALUE DUP1 ISZERO PUSH2 0x81 JUMPI PUSH1 0x0 DUP1 REVERT JUMPDEST POP PUSH2 0x9C PUSH1 0x4 DUP1 CALLDATASIZE SUB DUP2 ADD SWAP1 PUSH2 0x97 SWAP2 SWAP1 PUSH2 0x5FD JUMP JUMPDEST PUSH2 0x17B JUMP JUMPDEST STOP JUMPDEST CALLVALUE DUP1 ISZERO PUSH2 0xAA JUMPI PUSH1 0x0 DUP1 REVERT JUMPDEST POP PUSH2 0xB3 PUSH2 0x2B4 JUMP JUMPDEST PUSH1 0x40 MLOAD PUSH2 0xC0 SWAP2 SWAP1 PUSH2 0x66B JUMP JUMPDEST PUSH1 0x40 MLOAD DUP1 SWAP2 SUB SWAP1 RETURN JUMPDEST CALLVALUE DUP1 ISZERO PUSH2 0xD5 JUMPI PUSH1 0x0 DUP1 REVERT JUMPDEST POP PUSH2 0xDE PUSH2 0x2D8 JUMP JUMPDEST PUSH1 0x40 MLOAD PUSH2 0xEB SWAP2 SWAP1 PUSH2 0x695 JUMP JUMPDEST PUSH1 0x40 MLOAD DUP1 SWAP2 SUB SWAP1 RETURN JUMPDEST CALLVALUE DUP1 ISZERO PUSH2 0x100 JUMPI PUSH1 0x0 DUP1 REVERT JUMPDEST POP PUSH2 0x11B PUSH1 0x4 DUP1 CALLDATASIZE SUB DUP2 ADD SWAP1 PUSH2 0x116 SWAP2 SWAP1 PUSH2 0x822 JUMP JUMPDEST PUSH2 0x2DE JUMP JUMPDEST STOP JUMPDEST CALLVALUE DUP1 ISZERO PUSH2 0x129 JUMPI PUSH1 0x0 DUP1 REVERT JUMPDEST POP PUSH2 0x132 PUSH2 0x3EE JUMP JUMPDEST PUSH1 0x40 MLOAD PUSH2 0x13F SWAP2 SWAP1 PUSH2 0x695 JUMP JUMPDEST PUSH1 0x40 MLOAD DUP1 SWAP2 SUB SWAP1 RETURN JUMPDEST PUSH2 0x150 PUSH2 0x3F4 JUMP JUMPDEST STOP JUMPDEST CALLVALUE DUP1 ISZERO PUSH2 0x15E JUMPI PUSH1 0x0 DUP1 REVERT JUMPDEST POP PUSH2 0x179 PUSH1 0x4 DUP1 CALLDATASIZE SUB DUP2 ADD SWAP1 PUSH2 0x174 SWAP2 SWAP1 PUSH2 0x5FD JUMP JUMPDEST PUSH2 0x475 JUMP JUMPDEST STOP JUMPDEST PUSH1 0x0 DUP1 SLOAD SWAP1 PUSH2 0x100 EXP SWAP1 DIV PUSH20 0xFFFFFFFFFFFFFFFFFFFFFFFFFFFFFFFFFFFFFFFF AND PUSH20 0xFFFFFFFFFFFFFFFFFFFFFFFFFFFFFFFFFFFFFFFF AND CALLER PUSH20 0xFFFFFFFFFFFFFFFFFFFFFFFFFFFFFFFFFFFFFFFF AND EQ PUSH2 0x1D3 JUMPI PUSH1 0x0 DUP1 REVERT JUMPDEST PUSH1 0x0 PUSH1 0x5 PUSH1 0x0 DUP4 DUP2 MSTORE PUSH1 0x20 ADD SWAP1 DUP2 MSTORE PUSH1 0x20 ADD PUSH1 0x0 KECCAK256 SWAP1 POP DUP1 PUSH1 0x2 ADD PUSH1 0x14 SWAP1 SLOAD SWAP1 PUSH2 0x100 EXP SWAP1 DIV PUSH1 0xFF AND ISZERO PUSH2 0x206 JUMPI PUSH1 0x0 DUP1 REVERT JUMPDEST PUSH1 0x2 PUSH1 0x4 SLOAD PUSH2 0x215 SWAP2 SWAP1 PUSH2 0x8EF JUMP JUMPDEST DUP2 PUSH1 0x3 ADD SLOAD GT PUSH2 0x224 JUMPI PUSH1 0x0 DUP1 REVERT JUMPDEST DUP1 PUSH1 0x2 ADD PUSH1 0x0 SWAP1 SLOAD SWAP1 PUSH2 0x100 EXP SWAP1 DIV PUSH20 0xFFFFFFFFFFFFFFFFFFFFFFFFFFFFFFFFFFFFFFFF AND PUSH20 0xFFFFFFFFFFFFFFFFFFFFFFFFFFFFFFFFFFFFFFFF AND PUSH2 0x8FC DUP3 PUSH1 0x1 ADD SLOAD SWAP1 DUP2 ISZERO MUL SWAP1 PUSH1 0x40 MLOAD PUSH1 0x0 PUSH1 0x40 MLOAD DUP1 DUP4 SUB DUP2 DUP6 DUP9 DUP9 CALL SWAP4 POP POP POP POP ISZERO DUP1 ISZERO PUSH2 0x292 JUMPI RETURNDATASIZE PUSH1 0x0 DUP1 RETURNDATACOPY RETURNDATASIZE PUSH1 0x0 REVERT JUMPDEST POP PUSH1 0x1 DUP2 PUSH1 0x2 ADD PUSH1 0x14 PUSH2 0x100 EXP DUP2 SLOAD DUP2 PUSH1 0xFF MUL NOT AND SWAP1 DUP4 ISZERO ISZERO MUL OR SWAP1 SSTORE POP POP POP JUMP JUMPDEST PUSH1 0x0 DUP1 SLOAD SWAP1 PUSH2 0x100 EXP SWAP1 DIV PUSH20 0xFFFFFFFFFFFFFFFFFFFFFFFFFFFFFFFFFFFFFFFF AND DUP2 JUMP JUMPDEST PUSH1 0x4 SLOAD DUP2 JUMP JUMPDEST PUSH1 0x0 DUP1 SLOAD SWAP1 PUSH2 0x100 EXP SWAP1 DIV PUSH20 0xFFFFFFFFFFFFFFFFFFFFFFFFFFFFFFFFFFFFFFFF AND PUSH20 0xFFFFFFFFFFFFFFFFFFFFFFFFFFFFFFFFFFFFFFFF AND CALLER PUSH20 0xFFFFFFFFFFFFFFFFFFFFFFFFFFFFFFFFFFFFFFFF AND EQ PUSH2 0x336 JUMPI PUSH1 0x0 DUP1 REVERT JUMPDEST PUSH1 0x0 PUSH1 0x5 PUSH1 0x0 PUSH1 0x1 PUSH1 0x0 DUP2 SLOAD DUP1 SWAP3 SWAP2 SWAP1 PUSH2 0x34F SWAP1 PUSH2 0x920 JUMP JUMPDEST SWAP2 SWAP1 POP SSTORE DUP2 MSTORE PUSH1 0x20 ADD SWAP1 DUP2 MSTORE PUSH1 0x20 ADD PUSH1 0x0 KECCAK256 SWAP1 POP DUP4 DUP2 PUSH1 0x0 ADD SWAP1 DUP2 PUSH2 0x374 SWAP2 SWAP1 PUSH2 0xB7F JUMP JUMPDEST POP DUP3 DUP2 PUSH1 0x1 ADD DUP2 SWAP1 SSTORE POP DUP2 DUP2 PUSH1 0x2 ADD PUSH1 0x0 PUSH2 0x100 EXP DUP2 SLOAD DUP2 PUSH20 0xFFFFFFFFFFFFFFFFFFFFFFFFFFFFFFFFFFFFFFFF MUL NOT AND SWAP1 DUP4 PUSH20 0xFFFFFFFFFFFFFFFFFFFFFFFFFFFFFFFFFFFFFFFF AND MUL OR SWAP1 SSTORE POP PUSH1 0x0 DUP2 PUSH1 0x2 ADD PUSH1 0x14 PUSH2 0x100 EXP DUP2 SLOAD DUP2 PUSH1 0xFF MUL NOT AND SWAP1 DUP4 ISZERO ISZERO MUL OR SWAP1 SSTORE POP PUSH1 0x0 DUP2 PUSH1 0x3 ADD DUP2 SWAP1 SSTORE POP POP POP POP POP JUMP JUMPDEST PUSH1 0x3 SLOAD DUP2 JUMP JUMPDEST PUSH1 0x3 SLOAD CALLVALUE LT ISZERO PUSH2 0x403 JUMPI PUSH1 0x0 DUP1 REVERT JUMPDEST PUSH1 0x1 PUSH1 0x2 PUSH1 0x0 CALLER PUSH20 0xFFFFFFFFFFFFFFFFFFFFFFFFFFFFFFFFFFFFFFFF AND PUSH20 0xFFFFFFFFFFFFFFFFFFFFFFFFFFFFFFFFFFFFFFFF AND DUP2 MSTORE PUSH1 0x20 ADD SWAP1 DUP2 MSTORE PUSH1 0x20 ADD PUSH1 0x0 KECCAK256 PUSH1 0x0 PUSH2 0x100 EXP DUP2 SLOAD DUP2 PUSH1 0xFF MUL NOT AND SWAP1 DUP4 ISZERO ISZERO MUL OR SWAP1 SSTORE POP PUSH1 0x4 PUSH1 0x0 DUP2 SLOAD DUP1 SWAP3 SWAP2 SWAP1 PUSH2 0x46E SWAP1 PUSH2 0x920 JUMP JUMPDEST SWAP2 SWAP1 POP SSTORE POP JUMP JUMPDEST PUSH1 0x0 PUSH1 0x5 PUSH1 0x0 DUP4 DUP2 MSTORE PUSH1 0x20 ADD SWAP1 DUP2 MSTORE PUSH1 0x20 ADD PUSH1 0x0 KECCAK256 SWAP1 POP PUSH1 0x2 PUSH1 0x0 CALLER PUSH20 0xFFFFFFFFFFFFFFFFFFFFFFFFFFFFFFFFFFFFFFFF AND PUSH20 0xFFFFFFFFFFFFFFFFFFFFFFFFFFFFFFFFFFFFFFFF AND DUP2 MSTORE PUSH1 0x20 ADD SWAP1 DUP2 MSTORE PUSH1 0x20 ADD PUSH1 0x0 KECCAK256 PUSH1 0x0 SWAP1 SLOAD SWAP1 PUSH2 0x100 EXP SWAP1 DIV PUSH1 0xFF AND PUSH2 0x4E2 JUMPI PUSH1 0x0 DUP1 REVERT JUMPDEST DUP1 PUSH1 0x4 ADD PUSH1 0x0 CALLER PUSH20 0xFFFFFFFFFFFFFFFFFFFFFFFFFFFFFFFFFFFFFFFF AND PUSH20 0xFFFFFFFFFFFFFFFFFFFFFFFFFFFFFFFFFFFFFFFF AND DUP2 MSTORE PUSH1 0x20 ADD SWAP1 DUP2 MSTORE PUSH1 0x20 ADD PUSH1 0x0 KECCAK256 PUSH1 0x0 SWAP1 SLOAD SWAP1 PUSH2 0x100 EXP SWAP1 DIV PUSH1 0xFF AND ISZERO PUSH2 0x53B JUMPI PUSH1 0x0 DUP1 REVERT JUMPDEST PUSH1 0x1 DUP2 PUSH1 0x4 ADD PUSH1 0x0 CALLER PUSH20 0xFFFFFFFFFFFFFFFFFFFFFFFFFFFFFFFFFFFFFFFF AND PUSH20 0xFFFFFFFFFFFFFFFFFFFFFFFFFFFFFFFFFFFFFFFF AND DUP2 MSTORE PUSH1 0x20 ADD SWAP1 DUP2 MSTORE PUSH1 0x20 ADD PUSH1 0x0 KECCAK256 PUSH1 0x0 PUSH2 0x100 EXP DUP2 SLOAD DUP2 PUSH1 0xFF MUL NOT AND SWAP1 DUP4 ISZERO ISZERO MUL OR SWAP1 SSTORE POP DUP1 PUSH1 0x3 ADD PUSH1 0x0 DUP2 SLOAD DUP1 SWAP3 SWAP2 SWAP1 PUSH2 0x5AA SWAP1 PUSH2 0x920 JUMP JUMPDEST SWAP2 SWAP1 POP SSTORE POP POP POP JUMP JUMPDEST PUSH1 0x0 PUSH1 0x40 MLOAD SWAP1 POP SWAP1 JUMP JUMPDEST PUSH1 0x0 DUP1 REVERT JUMPDEST PUSH1 0x0 DUP1 REVERT JUMPDEST PUSH1 0x0 DUP2 SWAP1 POP SWAP2 SWAP1 POP JUMP JUMPDEST PUSH2 0x5DA DUP2 PUSH2 0x5C7 JUMP JUMPDEST DUP2 EQ PUSH2 0x5E5 JUMPI PUSH1 0x0 DUP1 REVERT JUMPDEST POP JUMP JUMPDEST PUSH1 0x0 DUP2 CALLDATALOAD SWAP1 POP PUSH2 0x5F7 DUP2 PUSH2 0x5D1 JUMP JUMPDEST SWAP3 SWAP2 POP POP JUMP JUMPDEST PUSH1 0x0 PUSH1 0x20 DUP3 DUP5 SUB SLT ISZERO PUSH2 0x613 JUMPI PUSH2 0x612 PUSH2 0x5BD JUMP JUMPDEST JUMPDEST PUSH1 0x0 PUSH2 0x621 DUP5 DUP3 DUP6 ADD PUSH2 0x5E8 JUMP JUMPDEST SWAP2 POP POP SWAP3 SWAP2 POP POP JUMP JUMPDEST PUSH1 0x0 PUSH20 0xFFFFFFFFFFFFFFFFFFFFFFFFFFFFFFFFFFFFFFFF DUP3 AND SWAP1 POP SWAP2 SWAP1 POP JUMP JUMPDEST PUSH1 0x0 PUSH2 0x655 DUP3 PUSH2 0x62A JUMP JUMPDEST SWAP1 POP SWAP2 SWAP1 POP JUMP JUMPDEST PUSH2 0x665 DUP2 PUSH2 0x64A JUMP JUMPDEST DUP3 MSTORE POP POP JUMP JUMPDEST PUSH1 0x0 PUSH1 0x20 DUP3 ADD SWAP1 POP PUSH2 0x680 PUSH1 0x0 DUP4 ADD DUP5 PUSH2 0x65C JUMP JUMPDEST SWAP3 SWAP2 POP POP JUMP JUMPDEST PUSH2 0x68F DUP2 PUSH2 0x5C7 JUMP JUMPDEST DUP3 MSTORE POP POP JUMP JUMPDEST PUSH1 0x0 PUSH1 0x20 DUP3 ADD SWAP1 POP PUSH2 0x6AA PUSH1 0x0 DUP4 ADD DUP5 PUSH2 0x686 JUMP JUMPDEST SWAP3 SWAP2 POP POP JUMP JUMPDEST PUSH1 0x0 DUP1 REVERT JUMPDEST PUSH1 0x0 DUP1 REVERT JUMPDEST PUSH1 0x0 PUSH1 0x1F NOT PUSH1 0x1F DUP4 ADD AND SWAP1 POP SWAP2 SWAP1 POP JUMP JUMPDEST PUSH32 0x4E487B7100000000000000000000000000000000000000000000000000000000 PUSH1 0x0 MSTORE PUSH1 0x41 PUSH1 0x4 MSTORE PUSH1 0x24 PUSH1 0x0 REVERT JUMPDEST PUSH2 0x703 DUP3 PUSH2 0x6BA JUMP JUMPDEST DUP2 ADD DUP2 DUP2 LT PUSH8 0xFFFFFFFFFFFFFFFF DUP3 GT OR ISZERO PUSH2 0x722 JUMPI PUSH2 0x721 PUSH2 0x6CB JUMP JUMPDEST JUMPDEST DUP1 PUSH1 0x40 MSTORE POP POP POP JUMP JUMPDEST PUSH1 0x0 PUSH2 0x735 PUSH2 0x5B3 JUMP JUMPDEST SWAP1 POP PUSH2 0x741 DUP3 DUP3 PUSH2 0x6FA JUMP JUMPDEST SWAP2 SWAP1 POP JUMP JUMPDEST PUSH1 0x0 PUSH8 0xFFFFFFFFFFFFFFFF DUP3 GT ISZERO PUSH2 0x761 JUMPI PUSH2 0x760 PUSH2 0x6CB JUMP JUMPDEST JUMPDEST PUSH2 0x76A DUP3 PUSH2 0x6BA JUMP JUMPDEST SWAP1 POP PUSH1 0x20 DUP2 ADD SWAP1 POP SWAP2 SWAP1 POP JUMP JUMPDEST DUP3 DUP2 DUP4 CALLDATACOPY PUSH1 0x0 DUP4 DUP4 ADD MSTORE POP POP POP JUMP JUMPDEST PUSH1 0x0 PUSH2 0x799 PUSH2 0x794 DUP5 PUSH2 0x746 JUMP JUMPDEST PUSH2 0x72B JUMP JUMPDEST SWAP1 POP DUP3 DUP2 MSTORE PUSH1 0x20 DUP2 ADD DUP5 DUP5 DUP5 ADD GT ISZERO PUSH2 0x7B5 JUMPI PUSH2 0x7B4 PUSH2 0x6B5 JUMP JUMPDEST JUMPDEST PUSH2 0x7C0 DUP5 DUP3 DUP6 PUSH2 0x777 JUMP JUMPDEST POP SWAP4 SWAP3 POP POP POP JUMP JUMPDEST PUSH1 0x0 DUP3 PUSH1 0x1F DUP4 ADD SLT PUSH2 0x7DD JUMPI PUSH2 0x7DC PUSH2 0x6B0 JUMP JUMPDEST JUMPDEST DUP2 CALLDATALOAD PUSH2 0x7ED DUP5 DUP3 PUSH1 0x20 DUP7 ADD PUSH2 0x786 JUMP JUMPDEST SWAP2 POP POP SWAP3 SWAP2 POP POP JUMP JUMPDEST PUSH2 0x7FF DUP2 PUSH2 0x64A JUMP JUMPDEST DUP2 EQ PUSH2 0x80A JUMPI PUSH1 0x0 DUP1 REVERT JUMPDEST POP JUMP JUMPDEST PUSH1 0x0 DUP2 CALLDATALOAD SWAP1 POP PUSH2 0x81C DUP2 PUSH2 0x7F6 JUMP JUMPDEST SWAP3 SWAP2 POP POP JUMP JUMPDEST PUSH1 0x0 DUP1 PUSH1 0x0 PUSH1 0x60 DUP5 DUP7 SUB SLT ISZERO PUSH2 0x83B JUMPI PUSH2 0x83A PUSH2 0x5BD JUMP JUMPDEST JUMPDEST PUSH1 0x0 DUP5 ADD CALLDATALOAD PUSH8 0xFFFFFFFFFFFFFFFF DUP2 GT ISZERO PUSH2 0x859 JUMPI PUSH2 0x858 PUSH2 0x5C2 JUMP JUMPDEST JUMPDEST PUSH2 0x865 DUP7 DUP3 DUP8 ADD PUSH2 0x7C8 JUMP JUMPDEST SWAP4 POP POP PUSH1 0x20 PUSH2 0x876 DUP7 DUP3 DUP8 ADD PUSH2 0x5E8 JUMP JUMPDEST SWAP3 POP POP PUSH1 0x40 PUSH2 0x887 DUP7 DUP3 DUP8 ADD PUSH2 0x80D JUMP JUMPDEST SWAP2 POP POP SWAP3 POP SWAP3 POP SWAP3 JUMP JUMPDEST PUSH32 0x4E487B7100000000000000000000000000000000000000000000000000000000 PUSH1 0x0 MSTORE PUSH1 0x12 PUSH1 0x4 MSTORE PUSH1 0x24 PUSH1 0x0 REVERT JUMPDEST PUSH32 0x4E487B7100000000000000000000000000000000000000000000000000000000 PUSH1 0x0 MSTORE PUSH1 0x11 PUSH1 0x4 MSTORE PUSH1 0x24 PUSH1 0x0 REVERT JUMPDEST PUSH1 0x0 PUSH2 0x8FA DUP3 PUSH2 0x5C7 JUMP JUMPDEST SWAP2 POP PUSH2 0x905 DUP4 PUSH2 0x5C7 JUMP JUMPDEST SWAP3 POP DUP3 PUSH2 0x915 JUMPI PUSH2 0x914 PUSH2 0x891 JUMP JUMPDEST JUMPDEST DUP3 DUP3 DIV SWAP1 POP SWAP3 SWAP2 POP POP JUMP JUMPDEST PUSH1 0x0 PUSH2 0x92B DUP3 PUSH2 0x5C7 JUMP JUMPDEST SWAP2 POP PUSH32 0xFFFFFFFFFFFFFFFFFFFFFFFFFFFFFFFFFFFFFFFFFFFFFFFFFFFFFFFFFFFFFFFF DUP3 SUB PUSH2 0x95D JUMPI PUSH2 0x95C PUSH2 0x8C0 JUMP JUMPDEST JUMPDEST PUSH1 0x1 DUP3 ADD SWAP1 POP SWAP2 SWAP1 POP JUMP JUMPDEST PUSH1 0x0 DUP2 MLOAD SWAP1 POP SWAP2 SWAP1 POP JUMP JUMPDEST PUSH32 0x4E487B7100000000000000000000000000000000000000000000000000000000 PUSH1 0x0 MSTORE PUSH1 0x22 PUSH1 0x4 MSTORE PUSH1 0x24 PUSH1 0x0 REVERT JUMPDEST PUSH1 0x0 PUSH1 0x2 DUP3 DIV SWAP1 POP PUSH1 0x1 DUP3 AND DUP1 PUSH2 0x9BA JUMPI PUSH1 0x7F DUP3 AND SWAP2 POP JUMPDEST PUSH1 0x20 DUP3 LT DUP2 SUB PUSH2 0x9CD JUMPI PUSH2 0x9CC PUSH2 0x973 JUMP JUMPDEST JUMPDEST POP SWAP2 SWAP1 POP JUMP JUMPDEST PUSH1 0x0 DUP2 SWAP1 POP DUP2 PUSH1 0x0 MSTORE PUSH1 0x20 PUSH1 0x0 KECCAK256 SWAP1 POP SWAP2 SWAP1 POP JUMP JUMPDEST PUSH1 0x0 PUSH1 0x20 PUSH1 0x1F DUP4 ADD DIV SWAP1 POP SWAP2 SWAP1 POP JUMP JUMPDEST PUSH1 0x0 DUP3 DUP3 SHL SWAP1 POP SWAP3 SWAP2 POP POP JUMP JUMPDEST PUSH1 0x0 PUSH1 0x8 DUP4 MUL PUSH2 0xA35 PUSH32 0xFFFFFFFFFFFFFFFFFFFFFFFFFFFFFFFFFFFFFFFFFFFFFFFFFFFFFFFFFFFFFFFF DUP3 PUSH2 0x9F8 JUMP JUMPDEST PUSH2 0xA3F DUP7 DUP4 PUSH2 0x9F8 JUMP JUMPDEST SWAP6 POP DUP1 NOT DUP5 AND SWAP4 POP DUP1 DUP7 AND DUP5 OR SWAP3 POP POP POP SWAP4 SWAP3 POP POP POP JUMP JUMPDEST PUSH1 0x0 DUP2 SWAP1 POP SWAP2 SWAP1 POP JUMP JUMPDEST PUSH1 0x0 PUSH2 0xA7C PUSH2 0xA77 PUSH2 0xA72 DUP5 PUSH2 0x5C7 JUMP JUMPDEST PUSH2 0xA57 JUMP JUMPDEST PUSH2 0x5C7 JUMP JUMPDEST SWAP1 POP SWAP2 SWAP1 POP JUMP JUMPDEST PUSH1 0x0 DUP2 SWAP1 POP SWAP2 SWAP1 POP JUMP JUMPDEST PUSH2 0xA96 DUP4 PUSH2 0xA61 JUMP JUMPDEST PUSH2 0xAAA PUSH2 0xAA2 DUP3 PUSH2 0xA83 JUMP JUMPDEST DUP5 DUP5 SLOAD PUSH2 0xA05 JUMP JUMPDEST DUP3 SSTORE POP POP POP POP JUMP JUMPDEST PUSH1 0x0 SWAP1 JUMP JUMPDEST PUSH2 0xABF PUSH2 0xAB2 JUMP JUMPDEST PUSH2 0xACA DUP2 DUP5 DUP5 PUSH2 0xA8D JUMP JUMPDEST POP POP POP JUMP JUMPDEST JUMPDEST DUP2 DUP2 LT ISZERO PUSH2 0xAEE JUMPI PUSH2 0xAE3 PUSH1 0x0 DUP3 PUSH2 0xAB7 JUMP JUMPDEST PUSH1 0x1 DUP2 ADD SWAP1 POP PUSH2 0xAD0 JUMP JUMPDEST POP POP JUMP JUMPDEST PUSH1 0x1F DUP3 GT ISZERO PUSH2 0xB33 JUMPI PUSH2 0xB04 DUP2 PUSH2 0x9D3 JUMP JUMPDEST PUSH2 0xB0D DUP5 PUSH2 0x9E8 JUMP JUMPDEST DUP2 ADD PUSH1 0x20 DUP6 LT ISZERO PUSH2 0xB1C JUMPI DUP2 SWAP1 POP JUMPDEST PUSH2 0xB30 PUSH2 0xB28 DUP6 PUSH2 0x9E8 JUMP JUMPDEST DUP4 ADD DUP3 PUSH2 0xACF JUMP JUMPDEST POP POP JUMPDEST POP POP POP JUMP JUMPDEST PUSH1 0x0 DUP3 DUP3 SHR SWAP1 POP SWAP3 SWAP2 POP POP JUMP JUMPDEST PUSH1 0x0 PUSH2 0xB56 PUSH1 0x0 NOT DUP5 PUSH1 0x8 MUL PUSH2 0xB38 JUMP JUMPDEST NOT DUP1 DUP4 AND SWAP2 POP POP SWAP3 SWAP2 POP POP JUMP JUMPDEST PUSH1 0x0 PUSH2 0xB6F DUP4 DUP4 PUSH2 0xB45 JUMP JUMPDEST SWAP2 POP DUP3 PUSH1 0x2 MUL DUP3 OR SWAP1 POP SWAP3 SWAP2 POP POP JUMP JUMPDEST PUSH2 0xB88 DUP3 PUSH2 0x968 JUMP JUMPDEST PUSH8 0xFFFFFFFFFFFFFFFF DUP2 GT ISZERO PUSH2 0xBA1 JUMPI PUSH2 0xBA0 PUSH2 0x6CB JUMP JUMPDEST JUMPDEST PUSH2 0xBAB DUP3 SLOAD PUSH2 0x9A2 JUMP JUMPDEST PUSH2 0xBB6 DUP3 DUP3 DUP6 PUSH2 0xAF2 JUMP JUMPDEST PUSH1 0x0 PUSH1 0x20 SWAP1 POP PUSH1 0x1F DUP4 GT PUSH1 0x1 DUP2 EQ PUSH2 0xBE9 JUMPI PUSH1 0x0 DUP5 ISZERO PUSH2 0xBD7 JUMPI DUP3 DUP8 ADD MLOAD SWAP1 POP JUMPDEST PUSH2 0xBE1 DUP6 DUP3 PUSH2 0xB63 JUMP JUMPDEST DUP7 SSTORE POP PUSH2 0xC49 JUMP JUMPDEST PUSH1 0x1F NOT DUP5 AND PUSH2 0xBF7 DUP7 PUSH2 0x9D3 JUMP JUMPDEST PUSH1 0x0 JUMPDEST DUP3 DUP2 LT ISZERO PUSH2 0xC1F JUMPI DUP5 DUP10 ADD MLOAD DUP3 SSTORE PUSH1 0x1 DUP3 ADD SWAP2 POP PUSH1 0x20 DUP6 ADD SWAP5 POP PUSH1 0x20 DUP2 ADD SWAP1 POP PUSH2 0xBFA JUMP JUMPDEST DUP7 DUP4 LT ISZERO PUSH2 0xC3C JUMPI DUP5 DUP10 ADD MLOAD PUSH2 0xC38 PUSH1 0x1F DUP10 AND DUP3 PUSH2 0xB45 JUMP JUMPDEST DUP4 SSTORE POP JUMPDEST PUSH1 0x1 PUSH1 0x2 DUP9 MUL ADD DUP9 SSTORE POP POP POP JUMPDEST POP POP POP POP POP POP JUMP INVALID LOG2 PUSH5 0x6970667358 0x22 SLT KECCAK256 DUP16 GASLIMIT 0xF7 PUSH11 0x956DAC29F92C5AD44B334B 0xE8 POP 0x25 PUSH14 0xDC7CD024FDA79361D9AEEC488364 PUSH20 0x6F6C634300080F00330000000000000000000000 "},"gasEstimates":{"creation":{"codeDepositCost":"641400","executionCost":"infinite","totalCost":"infinite"},"external":{"approveRequest(uint256)":"infinite","approversCount()":"2474","contribute()":"51002","createRequest(string,uint256,address)":"infinite","finalizeRequest(uint256)":"infinite","manager()":"2534","minimumContribution()":"2451"}},"methodIdentifiers":{"approveRequest(uint256)":"d7d1bbdb","approversCount()":"82fde093","contribute()":"d7bb99ba","createRequest(string,uint256,address)":"8a9cfd55","finalizeRequest(uint256)":"03441006","manager()":"481c6a75","minimumContribution()":"937e09b1"}},"storageLayout":{"storage":[{"astId":56,"contract":"Campaign.sol:Campaign","label":"manager","offset":0,"slot":"0","type":"t_address"},{"astId":58,"contract":"Campaign.sol:Campaign","label":"numRequests","offset":0,"slot":"1","type":"t_uint256"},{"astId":62,"contract":"Campaign.sol:Campaign","label":"approvers","offset":0,"slot":"2","type":"t_mapping(t_address,t_bool)"},{"astId":64,"contract":"Campaign.sol:Campaign","label":"minimumContribution","offset":0,"slot":"3","type":"t_uint256"},{"astId":66,"contract":"Campaign.sol:Campaign","label":"approversCount","offset":0,"slot":"4","type":"t_uint256"},{"astId":71,"contract":"Campaign.sol:Campaign","label":"requests","offset":0,"slot":"5","type":"t_mapping(t_uint256,t_struct(Request)54_storage)"}],"types":{"t_address":{"encoding":"inplace","label":"address","numberOfBytes":"20"},"t_address_payable":{"encoding":"inplace","label":"address payable","numberOfBytes":"20"},"t_bool":{"encoding":"inplace","label":"bool","numberOfBytes":"1"},"t_mapping(t_address,t_bool)":{"encoding":"mapping","key":"t_address","label":"mapping(address => bool)","numberOfBytes":"32","value":"t_bool"},"t_mapping(t_uint256,t_struct(Request)54_storage)":{"encoding":"mapping","key":"t_uint256","label":"mapping(uint256 => struct Campaign.Request)","numberOfBytes":"32","value":"t_struct(Request)54_storage"},"t_string_storage":{"encoding":"bytes","label":"string","numberOfBytes":"32"},"t_struct(Request)54_storage":{"encoding":"inplace","label":"struct Campaign.Request","members":[{"astId":41,"contract":"Campaign.sol:Campaign","label":"description","offset":0,"slot":"0","type":"t_string_storage"},{"astId":43,"contract":"Campaign.sol:Campaign","label":"value","offset":0,"slot":"1","type":"t_uint256"},{"astId":45,"contract":"Campaign.sol:Campaign","label":"recipient","offset":0,"slot":"2","type":"t_address_payable"},{"astId":47,"contract":"Campaign.sol:Campaign","label":"complete","offset":20,"slot":"2","type":"t_bool"},{"astId":49,"contract":"Campaign.sol:Campaign","label":"approvalCount","offset":0,"slot":"3","type":"t_uint256"},{"astId":53,"contract":"Campaign.sol:Campaign","label":"approvals","offset":0,"slot":"4","type":"t_mapping(t_address,t_bool)"}],"numberOfBytes":"160"},"t_uint256":{"encoding":"inplace","label":"uint256","numberOfBytes":"32"}}},"userdoc":{"kind":"user","methods":{},"version":1}}